{
	"src/Practise.sol": {
		"Demo": {
			"abi": [
				{
					"inputs": [
						{
							"internalType": "address",
							"name": "",
							"type": "address"
						}
					],
					"name": "balances",
					"outputs": [
						{
							"internalType": "uint256",
							"name": "totalPayments",
							"type": "uint256"
						}
					],
					"stateMutability": "view",
					"type": "function"
				},
				{
					"inputs": [
						{
							"internalType": "address",
							"name": "_addr",
							"type": "address"
						},
						{
							"internalType": "uint256",
							"name": "_index",
							"type": "uint256"
						}
					],
					"name": "getPayment",
					"outputs": [
						{
							"components": [
								{
									"internalType": "uint256",
									"name": "amount",
									"type": "uint256"
								},
								{
									"internalType": "uint256",
									"name": "timestamp",
									"type": "uint256"
								},
								{
									"internalType": "address",
									"name": "from",
									"type": "address"
								},
								{
									"internalType": "string",
									"name": "message",
									"type": "string"
								}
							],
							"internalType": "struct Demo.Payment",
							"name": "",
							"type": "tuple"
						}
					],
					"stateMutability": "view",
					"type": "function"
				},
				{
					"inputs": [
						{
							"internalType": "string",
							"name": "message",
							"type": "string"
						}
					],
					"name": "pay",
					"outputs": [],
					"stateMutability": "payable",
					"type": "function"
				}
			],
			"devdoc": {
				"kind": "dev",
				"methods": {},
				"version": 1
			},
			"evm": {
				"assembly": "    /* \"src/Practise.sol\":755:2537  contract Demo {... */\n  mstore(0x40, 0x80)\n  callvalue\n  dup1\n  iszero\n  tag_1\n  jumpi\n  0x00\n  dup1\n  revert\ntag_1:\n  pop\n  dataSize(sub_0)\n  dup1\n  dataOffset(sub_0)\n  0x00\n  codecopy\n  0x00\n  return\nstop\n\nsub_0: assembly {\n        /* \"src/Practise.sol\":755:2537  contract Demo {... */\n      mstore(0x40, 0x80)\n      jumpi(tag_1, lt(calldatasize, 0x04))\n      shr(0xe0, calldataload(0x00))\n      dup1\n      0x27e235e3\n      eq\n      tag_2\n      jumpi\n      dup1\n      0x2b66d72e\n      eq\n      tag_3\n      jumpi\n      dup1\n      0x977a767c\n      eq\n      tag_4\n      jumpi\n    tag_1:\n      0x00\n      dup1\n      revert\n        /* \"src/Practise.sol\":1006:1049  mapping(address => Balance) public balances */\n    tag_2:\n      callvalue\n      dup1\n      iszero\n      tag_5\n      jumpi\n      0x00\n      dup1\n      revert\n    tag_5:\n      pop\n      tag_6\n      0x04\n      dup1\n      calldatasize\n      sub\n      dup2\n      add\n      swap1\n      tag_7\n      swap2\n      swap1\n      tag_8\n      jump\t// in\n    tag_7:\n      tag_9\n      jump\t// in\n    tag_6:\n      mload(0x40)\n      tag_10\n      swap2\n      swap1\n      tag_11\n      jump\t// in\n    tag_10:\n      mload(0x40)\n      dup1\n      swap2\n      sub\n      swap1\n      return\n        /* \"src/Practise.sol\":1198:1582  function pay(string memory message) public payable {... */\n    tag_3:\n      tag_12\n      0x04\n      dup1\n      calldatasize\n      sub\n      dup2\n      add\n      swap1\n      tag_13\n      swap2\n      swap1\n      tag_14\n      jump\t// in\n    tag_13:\n      tag_15\n      jump\t// in\n    tag_12:\n      stop\n        /* \"src/Practise.sol\":1056:1192  function getPayment(address _addr, uint _index) public view returns(Payment memory){... */\n    tag_4:\n      callvalue\n      dup1\n      iszero\n      tag_16\n      jumpi\n      0x00\n      dup1\n      revert\n    tag_16:\n      pop\n      tag_17\n      0x04\n      dup1\n      calldatasize\n      sub\n      dup2\n      add\n      swap1\n      tag_18\n      swap2\n      swap1\n      tag_19\n      jump\t// in\n    tag_18:\n      tag_20\n      jump\t// in\n    tag_17:\n      mload(0x40)\n      tag_21\n      swap2\n      swap1\n      tag_22\n      jump\t// in\n    tag_21:\n      mload(0x40)\n      dup1\n      swap2\n      sub\n      swap1\n      return\n        /* \"src/Practise.sol\":1006:1049  mapping(address => Balance) public balances */\n    tag_9:\n      mstore(0x20, 0x00)\n      dup1\n      0x00\n      mstore\n      keccak256(0x00, 0x40)\n      0x00\n      swap2\n      pop\n      swap1\n      pop\n      dup1\n      0x00\n      add\n      sload\n      swap1\n      pop\n      dup2\n      jump\t// out\n        /* \"src/Practise.sol\":1198:1582  function pay(string memory message) public payable {... */\n    tag_15:\n        /* \"src/Practise.sol\":1259:1274  uint paymentNum */\n      0x00\n        /* \"src/Practise.sol\":1277:1285  balances */\n      dup1\n        /* \"src/Practise.sol\":1277:1297  balances[msg.sender] */\n      0x00\n        /* \"src/Practise.sol\":1286:1296  msg.sender */\n      caller\n        /* \"src/Practise.sol\":1277:1297  balances[msg.sender] */\n      0xffffffffffffffffffffffffffffffffffffffff\n      and\n      0xffffffffffffffffffffffffffffffffffffffff\n      and\n      dup2\n      mstore\n      0x20\n      add\n      swap1\n      dup2\n      mstore\n      0x20\n      add\n      0x00\n      keccak256\n        /* \"src/Practise.sol\":1277:1311  balances[msg.sender].totalPayments */\n      0x00\n      add\n      sload\n        /* \"src/Practise.sol\":1259:1311  uint paymentNum = balances[msg.sender].totalPayments */\n      swap1\n      pop\n        /* \"src/Practise.sol\":1321:1329  balances */\n      0x00\n        /* \"src/Practise.sol\":1321:1341  balances[msg.sender] */\n      dup1\n        /* \"src/Practise.sol\":1330:1340  msg.sender */\n      caller\n        /* \"src/Practise.sol\":1321:1341  balances[msg.sender] */\n      0xffffffffffffffffffffffffffffffffffffffff\n      and\n      0xffffffffffffffffffffffffffffffffffffffff\n      and\n      dup2\n      mstore\n      0x20\n      add\n      swap1\n      dup2\n      mstore\n      0x20\n      add\n      0x00\n      keccak256\n        /* \"src/Practise.sol\":1321:1355  balances[msg.sender].totalPayments */\n      0x00\n      add\n      0x00\n        /* \"src/Practise.sol\":1321:1357  balances[msg.sender].totalPayments++ */\n      dup2\n      sload\n      dup1\n      swap3\n      swap2\n      swap1\n      tag_24\n      swap1\n      tag_25\n      jump\t// in\n    tag_24:\n      swap2\n      swap1\n      pop\n      sstore\n      pop\n        /* \"src/Practise.sol\":1368:1393  Payment memory newPayment */\n      0x00\n        /* \"src/Practise.sol\":1396:1510  Payment(... */\n      mload(0x40)\n      dup1\n      0x80\n      add\n      0x40\n      mstore\n      dup1\n        /* \"src/Practise.sol\":1417:1426  msg.value */\n      callvalue\n        /* \"src/Practise.sol\":1396:1510  Payment(... */\n      dup2\n      mstore\n      0x20\n      add\n        /* \"src/Practise.sol\":1440:1455  block.timestamp */\n      timestamp\n        /* \"src/Practise.sol\":1396:1510  Payment(... */\n      dup2\n      mstore\n      0x20\n      add\n        /* \"src/Practise.sol\":1469:1479  msg.sender */\n      caller\n        /* \"src/Practise.sol\":1396:1510  Payment(... */\n      0xffffffffffffffffffffffffffffffffffffffff\n      and\n      dup2\n      mstore\n      0x20\n      add\n        /* \"src/Practise.sol\":1493:1500  message */\n      dup5\n        /* \"src/Practise.sol\":1396:1510  Payment(... */\n      dup2\n      mstore\n      pop\n        /* \"src/Practise.sol\":1368:1510  Payment memory newPayment = Payment(... */\n      swap1\n      pop\n        /* \"src/Practise.sol\":1565:1575  newPayment */\n      dup1\n        /* \"src/Practise.sol\":1521:1529  balances */\n      0x00\n        /* \"src/Practise.sol\":1521:1541  balances[msg.sender] */\n      dup1\n        /* \"src/Practise.sol\":1530:1540  msg.sender */\n      caller\n        /* \"src/Practise.sol\":1521:1541  balances[msg.sender] */\n      0xffffffffffffffffffffffffffffffffffffffff\n      and\n      0xffffffffffffffffffffffffffffffffffffffff\n      and\n      dup2\n      mstore\n      0x20\n      add\n      swap1\n      dup2\n      mstore\n      0x20\n      add\n      0x00\n      keccak256\n        /* \"src/Practise.sol\":1521:1550  balances[msg.sender].paymants */\n      0x01\n      add\n        /* \"src/Practise.sol\":1521:1562  balances[msg.sender].paymants[paymentNum] */\n      0x00\n        /* \"src/Practise.sol\":1551:1561  paymentNum */\n      dup5\n        /* \"src/Practise.sol\":1521:1562  balances[msg.sender].paymants[paymentNum] */\n      dup2\n      mstore\n      0x20\n      add\n      swap1\n      dup2\n      mstore\n      0x20\n      add\n      0x00\n      keccak256\n        /* \"src/Practise.sol\":1521:1575  balances[msg.sender].paymants[paymentNum] = newPayment */\n      0x00\n      dup3\n      add\n      mload\n      dup2\n      0x00\n      add\n      sstore\n      0x20\n      dup3\n      add\n      mload\n      dup2\n      0x01\n      add\n      sstore\n      0x40\n      dup3\n      add\n      mload\n      dup2\n      0x02\n      add\n      exp(0x0100, 0x00)\n      dup2\n      sload\n      dup2\n      0xffffffffffffffffffffffffffffffffffffffff\n      mul\n      not\n      and\n      swap1\n      dup4\n      0xffffffffffffffffffffffffffffffffffffffff\n      and\n      mul\n      or\n      swap1\n      sstore\n      pop\n      0x60\n      dup3\n      add\n      mload\n      dup2\n      0x03\n      add\n      swap1\n      dup2\n      tag_26\n      swap2\n      swap1\n      tag_27\n      jump\t// in\n    tag_26:\n      pop\n      swap1\n      pop\n      pop\n        /* \"src/Practise.sol\":1249:1582  {... */\n      pop\n      pop\n        /* \"src/Practise.sol\":1198:1582  function pay(string memory message) public payable {... */\n      pop\n      jump\t// out\n        /* \"src/Practise.sol\":1056:1192  function getPayment(address _addr, uint _index) public view returns(Payment memory){... */\n    tag_20:\n        /* \"src/Practise.sol\":1124:1138  Payment memory */\n      tag_28\n      tag_29\n      jump\t// in\n    tag_28:\n        /* \"src/Practise.sol\":1153:1161  balances */\n      0x00\n        /* \"src/Practise.sol\":1153:1168  balances[_addr] */\n      dup1\n        /* \"src/Practise.sol\":1162:1167  _addr */\n      dup5\n        /* \"src/Practise.sol\":1153:1168  balances[_addr] */\n      0xffffffffffffffffffffffffffffffffffffffff\n      and\n      0xffffffffffffffffffffffffffffffffffffffff\n      and\n      dup2\n      mstore\n      0x20\n      add\n      swap1\n      dup2\n      mstore\n      0x20\n      add\n      0x00\n      keccak256\n        /* \"src/Practise.sol\":1153:1177  balances[_addr].paymants */\n      0x01\n      add\n        /* \"src/Practise.sol\":1153:1185  balances[_addr].paymants[_index] */\n      0x00\n        /* \"src/Practise.sol\":1178:1184  _index */\n      dup4\n        /* \"src/Practise.sol\":1153:1185  balances[_addr].paymants[_index] */\n      dup2\n      mstore\n      0x20\n      add\n      swap1\n      dup2\n      mstore\n      0x20\n      add\n      0x00\n      keccak256\n        /* \"src/Practise.sol\":1146:1185  return balances[_addr].paymants[_index] */\n      mload(0x40)\n      dup1\n      0x80\n      add\n      0x40\n      mstore\n      swap1\n      dup2\n      0x00\n      dup3\n      add\n      sload\n      dup2\n      mstore\n      0x20\n      add\n      0x01\n      dup3\n      add\n      sload\n      dup2\n      mstore\n      0x20\n      add\n      0x02\n      dup3\n      add\n      0x00\n      swap1\n      sload\n      swap1\n      0x0100\n      exp\n      swap1\n      div\n      0xffffffffffffffffffffffffffffffffffffffff\n      and\n      0xffffffffffffffffffffffffffffffffffffffff\n      and\n      0xffffffffffffffffffffffffffffffffffffffff\n      and\n      dup2\n      mstore\n      0x20\n      add\n      0x03\n      dup3\n      add\n      dup1\n      sload\n      tag_31\n      swap1\n      tag_32\n      jump\t// in\n    tag_31:\n      dup1\n      0x1f\n      add\n      0x20\n      dup1\n      swap2\n      div\n      mul\n      0x20\n      add\n      mload(0x40)\n      swap1\n      dup2\n      add\n      0x40\n      mstore\n      dup1\n      swap3\n      swap2\n      swap1\n      dup2\n      dup2\n      mstore\n      0x20\n      add\n      dup3\n      dup1\n      sload\n      tag_33\n      swap1\n      tag_32\n      jump\t// in\n    tag_33:\n      dup1\n      iszero\n      tag_34\n      jumpi\n      dup1\n      0x1f\n      lt\n      tag_35\n      jumpi\n      0x0100\n      dup1\n      dup4\n      sload\n      div\n      mul\n      dup4\n      mstore\n      swap2\n      0x20\n      add\n      swap2\n      jump(tag_34)\n    tag_35:\n      dup3\n      add\n      swap2\n      swap1\n      0x00\n      mstore\n      keccak256(0x00, 0x20)\n      swap1\n    tag_36:\n      dup2\n      sload\n      dup2\n      mstore\n      swap1\n      0x01\n      add\n      swap1\n      0x20\n      add\n      dup1\n      dup4\n      gt\n      tag_36\n      jumpi\n      dup3\n      swap1\n      sub\n      0x1f\n      and\n      dup3\n      add\n      swap2\n    tag_34:\n      pop\n      pop\n      pop\n      pop\n      pop\n      dup2\n      mstore\n      pop\n      pop\n      swap1\n      pop\n        /* \"src/Practise.sol\":1056:1192  function getPayment(address _addr, uint _index) public view returns(Payment memory){... */\n      swap3\n      swap2\n      pop\n      pop\n      jump\t// out\n    tag_29:\n      mload(0x40)\n      dup1\n      0x80\n      add\n      0x40\n      mstore\n      dup1\n      0x00\n      dup2\n      mstore\n      0x20\n      add\n      0x00\n      dup2\n      mstore\n      0x20\n      add\n      and(0xffffffffffffffffffffffffffffffffffffffff, 0x00)\n      dup2\n      mstore\n      0x20\n      add\n      0x60\n      dup2\n      mstore\n      pop\n      swap1\n      jump\t// out\n        /* \"#utility.yul\":7:82   */\n    tag_37:\n        /* \"#utility.yul\":40:46   */\n      0x00\n        /* \"#utility.yul\":73:75   */\n      0x40\n        /* \"#utility.yul\":67:76   */\n      mload\n        /* \"#utility.yul\":57:76   */\n      swap1\n      pop\n        /* \"#utility.yul\":7:82   */\n      swap1\n      jump\t// out\n        /* \"#utility.yul\":88:205   */\n    tag_38:\n        /* \"#utility.yul\":197:198   */\n      0x00\n        /* \"#utility.yul\":194:195   */\n      dup1\n        /* \"#utility.yul\":187:199   */\n      revert\n        /* \"#utility.yul\":211:328   */\n    tag_39:\n        /* \"#utility.yul\":320:321   */\n      0x00\n        /* \"#utility.yul\":317:318   */\n      dup1\n        /* \"#utility.yul\":310:322   */\n      revert\n        /* \"#utility.yul\":334:460   */\n    tag_40:\n        /* \"#utility.yul\":371:378   */\n      0x00\n        /* \"#utility.yul\":411:453   */\n      0xffffffffffffffffffffffffffffffffffffffff\n        /* \"#utility.yul\":404:409   */\n      dup3\n        /* \"#utility.yul\":400:454   */\n      and\n        /* \"#utility.yul\":389:454   */\n      swap1\n      pop\n        /* \"#utility.yul\":334:460   */\n      swap2\n      swap1\n      pop\n      jump\t// out\n        /* \"#utility.yul\":466:562   */\n    tag_41:\n        /* \"#utility.yul\":503:510   */\n      0x00\n        /* \"#utility.yul\":532:556   */\n      tag_88\n        /* \"#utility.yul\":550:555   */\n      dup3\n        /* \"#utility.yul\":532:556   */\n      tag_40\n      jump\t// in\n    tag_88:\n        /* \"#utility.yul\":521:556   */\n      swap1\n      pop\n        /* \"#utility.yul\":466:562   */\n      swap2\n      swap1\n      pop\n      jump\t// out\n        /* \"#utility.yul\":568:690   */\n    tag_42:\n        /* \"#utility.yul\":641:665   */\n      tag_90\n        /* \"#utility.yul\":659:664   */\n      dup2\n        /* \"#utility.yul\":641:665   */\n      tag_41\n      jump\t// in\n    tag_90:\n        /* \"#utility.yul\":634:639   */\n      dup2\n        /* \"#utility.yul\":631:666   */\n      eq\n        /* \"#utility.yul\":621:684   */\n      tag_91\n      jumpi\n        /* \"#utility.yul\":680:681   */\n      0x00\n        /* \"#utility.yul\":677:678   */\n      dup1\n        /* \"#utility.yul\":670:682   */\n      revert\n        /* \"#utility.yul\":621:684   */\n    tag_91:\n        /* \"#utility.yul\":568:690   */\n      pop\n      jump\t// out\n        /* \"#utility.yul\":696:835   */\n    tag_43:\n        /* \"#utility.yul\":742:747   */\n      0x00\n        /* \"#utility.yul\":780:786   */\n      dup2\n        /* \"#utility.yul\":767:787   */\n      calldataload\n        /* \"#utility.yul\":758:787   */\n      swap1\n      pop\n        /* \"#utility.yul\":796:829   */\n      tag_93\n        /* \"#utility.yul\":823:828   */\n      dup2\n        /* \"#utility.yul\":796:829   */\n      tag_42\n      jump\t// in\n    tag_93:\n        /* \"#utility.yul\":696:835   */\n      swap3\n      swap2\n      pop\n      pop\n      jump\t// out\n        /* \"#utility.yul\":841:1170   */\n    tag_8:\n        /* \"#utility.yul\":900:906   */\n      0x00\n        /* \"#utility.yul\":949:951   */\n      0x20\n        /* \"#utility.yul\":937:946   */\n      dup3\n        /* \"#utility.yul\":928:935   */\n      dup5\n        /* \"#utility.yul\":924:947   */\n      sub\n        /* \"#utility.yul\":920:952   */\n      slt\n        /* \"#utility.yul\":917:1036   */\n      iszero\n      tag_95\n      jumpi\n        /* \"#utility.yul\":955:1034   */\n      tag_96\n      tag_38\n      jump\t// in\n    tag_96:\n        /* \"#utility.yul\":917:1036   */\n    tag_95:\n        /* \"#utility.yul\":1075:1076   */\n      0x00\n        /* \"#utility.yul\":1100:1153   */\n      tag_97\n        /* \"#utility.yul\":1145:1152   */\n      dup5\n        /* \"#utility.yul\":1136:1142   */\n      dup3\n        /* \"#utility.yul\":1125:1134   */\n      dup6\n        /* \"#utility.yul\":1121:1143   */\n      add\n        /* \"#utility.yul\":1100:1153   */\n      tag_43\n      jump\t// in\n    tag_97:\n        /* \"#utility.yul\":1090:1153   */\n      swap2\n      pop\n        /* \"#utility.yul\":1046:1163   */\n      pop\n        /* \"#utility.yul\":841:1170   */\n      swap3\n      swap2\n      pop\n      pop\n      jump\t// out\n        /* \"#utility.yul\":1176:1253   */\n    tag_44:\n        /* \"#utility.yul\":1213:1220   */\n      0x00\n        /* \"#utility.yul\":1242:1247   */\n      dup2\n        /* \"#utility.yul\":1231:1247   */\n      swap1\n      pop\n        /* \"#utility.yul\":1176:1253   */\n      swap2\n      swap1\n      pop\n      jump\t// out\n        /* \"#utility.yul\":1259:1377   */\n    tag_45:\n        /* \"#utility.yul\":1346:1370   */\n      tag_100\n        /* \"#utility.yul\":1364:1369   */\n      dup2\n        /* \"#utility.yul\":1346:1370   */\n      tag_44\n      jump\t// in\n    tag_100:\n        /* \"#utility.yul\":1341:1344   */\n      dup3\n        /* \"#utility.yul\":1334:1371   */\n      mstore\n        /* \"#utility.yul\":1259:1377   */\n      pop\n      pop\n      jump\t// out\n        /* \"#utility.yul\":1383:1605   */\n    tag_11:\n        /* \"#utility.yul\":1476:1480   */\n      0x00\n        /* \"#utility.yul\":1514:1516   */\n      0x20\n        /* \"#utility.yul\":1503:1512   */\n      dup3\n        /* \"#utility.yul\":1499:1517   */\n      add\n        /* \"#utility.yul\":1491:1517   */\n      swap1\n      pop\n        /* \"#utility.yul\":1527:1598   */\n      tag_102\n        /* \"#utility.yul\":1595:1596   */\n      0x00\n        /* \"#utility.yul\":1584:1593   */\n      dup4\n        /* \"#utility.yul\":1580:1597   */\n      add\n        /* \"#utility.yul\":1571:1577   */\n      dup5\n        /* \"#utility.yul\":1527:1598   */\n      tag_45\n      jump\t// in\n    tag_102:\n        /* \"#utility.yul\":1383:1605   */\n      swap3\n      swap2\n      pop\n      pop\n      jump\t// out\n        /* \"#utility.yul\":1611:1728   */\n    tag_46:\n        /* \"#utility.yul\":1720:1721   */\n      0x00\n        /* \"#utility.yul\":1717:1718   */\n      dup1\n        /* \"#utility.yul\":1710:1722   */\n      revert\n        /* \"#utility.yul\":1734:1851   */\n    tag_47:\n        /* \"#utility.yul\":1843:1844   */\n      0x00\n        /* \"#utility.yul\":1840:1841   */\n      dup1\n        /* \"#utility.yul\":1833:1845   */\n      revert\n        /* \"#utility.yul\":1857:1959   */\n    tag_48:\n        /* \"#utility.yul\":1898:1904   */\n      0x00\n        /* \"#utility.yul\":1949:1951   */\n      0x1f\n        /* \"#utility.yul\":1945:1952   */\n      not\n        /* \"#utility.yul\":1940:1942   */\n      0x1f\n        /* \"#utility.yul\":1933:1938   */\n      dup4\n        /* \"#utility.yul\":1929:1943   */\n      add\n        /* \"#utility.yul\":1925:1953   */\n      and\n        /* \"#utility.yul\":1915:1953   */\n      swap1\n      pop\n        /* \"#utility.yul\":1857:1959   */\n      swap2\n      swap1\n      pop\n      jump\t// out\n        /* \"#utility.yul\":1965:2145   */\n    tag_49:\n        /* \"#utility.yul\":2013:2090   */\n      0x4e487b7100000000000000000000000000000000000000000000000000000000\n        /* \"#utility.yul\":2010:2011   */\n      0x00\n        /* \"#utility.yul\":2003:2091   */\n      mstore\n        /* \"#utility.yul\":2110:2114   */\n      0x41\n        /* \"#utility.yul\":2107:2108   */\n      0x04\n        /* \"#utility.yul\":2100:2115   */\n      mstore\n        /* \"#utility.yul\":2134:2138   */\n      0x24\n        /* \"#utility.yul\":2131:2132   */\n      0x00\n        /* \"#utility.yul\":2124:2139   */\n      revert\n        /* \"#utility.yul\":2151:2432   */\n    tag_50:\n        /* \"#utility.yul\":2234:2261   */\n      tag_108\n        /* \"#utility.yul\":2256:2260   */\n      dup3\n        /* \"#utility.yul\":2234:2261   */\n      tag_48\n      jump\t// in\n    tag_108:\n        /* \"#utility.yul\":2226:2232   */\n      dup2\n        /* \"#utility.yul\":2222:2262   */\n      add\n        /* \"#utility.yul\":2364:2370   */\n      dup2\n        /* \"#utility.yul\":2352:2362   */\n      dup2\n        /* \"#utility.yul\":2349:2371   */\n      lt\n        /* \"#utility.yul\":2328:2346   */\n      0xffffffffffffffff\n        /* \"#utility.yul\":2316:2326   */\n      dup3\n        /* \"#utility.yul\":2313:2347   */\n      gt\n        /* \"#utility.yul\":2310:2372   */\n      or\n        /* \"#utility.yul\":2307:2395   */\n      iszero\n      tag_109\n      jumpi\n        /* \"#utility.yul\":2375:2393   */\n      tag_110\n      tag_49\n      jump\t// in\n    tag_110:\n        /* \"#utility.yul\":2307:2395   */\n    tag_109:\n        /* \"#utility.yul\":2415:2425   */\n      dup1\n        /* \"#utility.yul\":2411:2413   */\n      0x40\n        /* \"#utility.yul\":2404:2426   */\n      mstore\n        /* \"#utility.yul\":2194:2432   */\n      pop\n        /* \"#utility.yul\":2151:2432   */\n      pop\n      pop\n      jump\t// out\n        /* \"#utility.yul\":2438:2567   */\n    tag_51:\n        /* \"#utility.yul\":2472:2478   */\n      0x00\n        /* \"#utility.yul\":2499:2519   */\n      tag_112\n      tag_37\n      jump\t// in\n    tag_112:\n        /* \"#utility.yul\":2489:2519   */\n      swap1\n      pop\n        /* \"#utility.yul\":2528:2561   */\n      tag_113\n        /* \"#utility.yul\":2556:2560   */\n      dup3\n        /* \"#utility.yul\":2548:2554   */\n      dup3\n        /* \"#utility.yul\":2528:2561   */\n      tag_50\n      jump\t// in\n    tag_113:\n        /* \"#utility.yul\":2438:2567   */\n      swap2\n      swap1\n      pop\n      jump\t// out\n        /* \"#utility.yul\":2573:2881   */\n    tag_52:\n        /* \"#utility.yul\":2635:2639   */\n      0x00\n        /* \"#utility.yul\":2725:2743   */\n      0xffffffffffffffff\n        /* \"#utility.yul\":2717:2723   */\n      dup3\n        /* \"#utility.yul\":2714:2744   */\n      gt\n        /* \"#utility.yul\":2711:2767   */\n      iszero\n      tag_115\n      jumpi\n        /* \"#utility.yul\":2747:2765   */\n      tag_116\n      tag_49\n      jump\t// in\n    tag_116:\n        /* \"#utility.yul\":2711:2767   */\n    tag_115:\n        /* \"#utility.yul\":2785:2814   */\n      tag_117\n        /* \"#utility.yul\":2807:2813   */\n      dup3\n        /* \"#utility.yul\":2785:2814   */\n      tag_48\n      jump\t// in\n    tag_117:\n        /* \"#utility.yul\":2777:2814   */\n      swap1\n      pop\n        /* \"#utility.yul\":2869:2873   */\n      0x20\n        /* \"#utility.yul\":2863:2867   */\n      dup2\n        /* \"#utility.yul\":2859:2874   */\n      add\n        /* \"#utility.yul\":2851:2874   */\n      swap1\n      pop\n        /* \"#utility.yul\":2573:2881   */\n      swap2\n      swap1\n      pop\n      jump\t// out\n        /* \"#utility.yul\":2887:3035   */\n    tag_53:\n        /* \"#utility.yul\":2985:2991   */\n      dup3\n        /* \"#utility.yul\":2980:2983   */\n      dup2\n        /* \"#utility.yul\":2975:2978   */\n      dup4\n        /* \"#utility.yul\":2962:2992   */\n      calldatacopy\n        /* \"#utility.yul\":3026:3027   */\n      0x00\n        /* \"#utility.yul\":3017:3023   */\n      dup4\n        /* \"#utility.yul\":3012:3015   */\n      dup4\n        /* \"#utility.yul\":3008:3024   */\n      add\n        /* \"#utility.yul\":3001:3028   */\n      mstore\n        /* \"#utility.yul\":2887:3035   */\n      pop\n      pop\n      pop\n      jump\t// out\n        /* \"#utility.yul\":3041:3466   */\n    tag_54:\n        /* \"#utility.yul\":3119:3124   */\n      0x00\n        /* \"#utility.yul\":3144:3210   */\n      tag_120\n        /* \"#utility.yul\":3160:3209   */\n      tag_121\n        /* \"#utility.yul\":3202:3208   */\n      dup5\n        /* \"#utility.yul\":3160:3209   */\n      tag_52\n      jump\t// in\n    tag_121:\n        /* \"#utility.yul\":3144:3210   */\n      tag_51\n      jump\t// in\n    tag_120:\n        /* \"#utility.yul\":3135:3210   */\n      swap1\n      pop\n        /* \"#utility.yul\":3233:3239   */\n      dup3\n        /* \"#utility.yul\":3226:3231   */\n      dup2\n        /* \"#utility.yul\":3219:3240   */\n      mstore\n        /* \"#utility.yul\":3271:3275   */\n      0x20\n        /* \"#utility.yul\":3264:3269   */\n      dup2\n        /* \"#utility.yul\":3260:3276   */\n      add\n        /* \"#utility.yul\":3309:3312   */\n      dup5\n        /* \"#utility.yul\":3300:3306   */\n      dup5\n        /* \"#utility.yul\":3295:3298   */\n      dup5\n        /* \"#utility.yul\":3291:3307   */\n      add\n        /* \"#utility.yul\":3288:3313   */\n      gt\n        /* \"#utility.yul\":3285:3397   */\n      iszero\n      tag_122\n      jumpi\n        /* \"#utility.yul\":3316:3395   */\n      tag_123\n      tag_47\n      jump\t// in\n    tag_123:\n        /* \"#utility.yul\":3285:3397   */\n    tag_122:\n        /* \"#utility.yul\":3406:3460   */\n      tag_124\n        /* \"#utility.yul\":3453:3459   */\n      dup5\n        /* \"#utility.yul\":3448:3451   */\n      dup3\n        /* \"#utility.yul\":3443:3446   */\n      dup6\n        /* \"#utility.yul\":3406:3460   */\n      tag_53\n      jump\t// in\n    tag_124:\n        /* \"#utility.yul\":3125:3466   */\n      pop\n        /* \"#utility.yul\":3041:3466   */\n      swap4\n      swap3\n      pop\n      pop\n      pop\n      jump\t// out\n        /* \"#utility.yul\":3486:3826   */\n    tag_55:\n        /* \"#utility.yul\":3542:3547   */\n      0x00\n        /* \"#utility.yul\":3591:3594   */\n      dup3\n        /* \"#utility.yul\":3584:3588   */\n      0x1f\n        /* \"#utility.yul\":3576:3582   */\n      dup4\n        /* \"#utility.yul\":3572:3589   */\n      add\n        /* \"#utility.yul\":3568:3595   */\n      slt\n        /* \"#utility.yul\":3558:3680   */\n      tag_126\n      jumpi\n        /* \"#utility.yul\":3599:3678   */\n      tag_127\n      tag_46\n      jump\t// in\n    tag_127:\n        /* \"#utility.yul\":3558:3680   */\n    tag_126:\n        /* \"#utility.yul\":3716:3722   */\n      dup2\n        /* \"#utility.yul\":3703:3723   */\n      calldataload\n        /* \"#utility.yul\":3741:3820   */\n      tag_128\n        /* \"#utility.yul\":3816:3819   */\n      dup5\n        /* \"#utility.yul\":3808:3814   */\n      dup3\n        /* \"#utility.yul\":3801:3805   */\n      0x20\n        /* \"#utility.yul\":3793:3799   */\n      dup7\n        /* \"#utility.yul\":3789:3806   */\n      add\n        /* \"#utility.yul\":3741:3820   */\n      tag_54\n      jump\t// in\n    tag_128:\n        /* \"#utility.yul\":3732:3820   */\n      swap2\n      pop\n        /* \"#utility.yul\":3548:3826   */\n      pop\n        /* \"#utility.yul\":3486:3826   */\n      swap3\n      swap2\n      pop\n      pop\n      jump\t// out\n        /* \"#utility.yul\":3832:4341   */\n    tag_14:\n        /* \"#utility.yul\":3901:3907   */\n      0x00\n        /* \"#utility.yul\":3950:3952   */\n      0x20\n        /* \"#utility.yul\":3938:3947   */\n      dup3\n        /* \"#utility.yul\":3929:3936   */\n      dup5\n        /* \"#utility.yul\":3925:3948   */\n      sub\n        /* \"#utility.yul\":3921:3953   */\n      slt\n        /* \"#utility.yul\":3918:4037   */\n      iszero\n      tag_130\n      jumpi\n        /* \"#utility.yul\":3956:4035   */\n      tag_131\n      tag_38\n      jump\t// in\n    tag_131:\n        /* \"#utility.yul\":3918:4037   */\n    tag_130:\n        /* \"#utility.yul\":4104:4105   */\n      0x00\n        /* \"#utility.yul\":4093:4102   */\n      dup3\n        /* \"#utility.yul\":4089:4106   */\n      add\n        /* \"#utility.yul\":4076:4107   */\n      calldataload\n        /* \"#utility.yul\":4134:4152   */\n      0xffffffffffffffff\n        /* \"#utility.yul\":4126:4132   */\n      dup2\n        /* \"#utility.yul\":4123:4153   */\n      gt\n        /* \"#utility.yul\":4120:4237   */\n      iszero\n      tag_132\n      jumpi\n        /* \"#utility.yul\":4156:4235   */\n      tag_133\n      tag_39\n      jump\t// in\n    tag_133:\n        /* \"#utility.yul\":4120:4237   */\n    tag_132:\n        /* \"#utility.yul\":4261:4324   */\n      tag_134\n        /* \"#utility.yul\":4316:4323   */\n      dup5\n        /* \"#utility.yul\":4307:4313   */\n      dup3\n        /* \"#utility.yul\":4296:4305   */\n      dup6\n        /* \"#utility.yul\":4292:4314   */\n      add\n        /* \"#utility.yul\":4261:4324   */\n      tag_55\n      jump\t// in\n    tag_134:\n        /* \"#utility.yul\":4251:4324   */\n      swap2\n      pop\n        /* \"#utility.yul\":4047:4334   */\n      pop\n        /* \"#utility.yul\":3832:4341   */\n      swap3\n      swap2\n      pop\n      pop\n      jump\t// out\n        /* \"#utility.yul\":4347:4469   */\n    tag_56:\n        /* \"#utility.yul\":4420:4444   */\n      tag_136\n        /* \"#utility.yul\":4438:4443   */\n      dup2\n        /* \"#utility.yul\":4420:4444   */\n      tag_44\n      jump\t// in\n    tag_136:\n        /* \"#utility.yul\":4413:4418   */\n      dup2\n        /* \"#utility.yul\":4410:4445   */\n      eq\n        /* \"#utility.yul\":4400:4463   */\n      tag_137\n      jumpi\n        /* \"#utility.yul\":4459:4460   */\n      0x00\n        /* \"#utility.yul\":4456:4457   */\n      dup1\n        /* \"#utility.yul\":4449:4461   */\n      revert\n        /* \"#utility.yul\":4400:4463   */\n    tag_137:\n        /* \"#utility.yul\":4347:4469   */\n      pop\n      jump\t// out\n        /* \"#utility.yul\":4475:4614   */\n    tag_57:\n        /* \"#utility.yul\":4521:4526   */\n      0x00\n        /* \"#utility.yul\":4559:4565   */\n      dup2\n        /* \"#utility.yul\":4546:4566   */\n      calldataload\n        /* \"#utility.yul\":4537:4566   */\n      swap1\n      pop\n        /* \"#utility.yul\":4575:4608   */\n      tag_139\n        /* \"#utility.yul\":4602:4607   */\n      dup2\n        /* \"#utility.yul\":4575:4608   */\n      tag_56\n      jump\t// in\n    tag_139:\n        /* \"#utility.yul\":4475:4614   */\n      swap3\n      swap2\n      pop\n      pop\n      jump\t// out\n        /* \"#utility.yul\":4620:5094   */\n    tag_19:\n        /* \"#utility.yul\":4688:4694   */\n      0x00\n        /* \"#utility.yul\":4696:4702   */\n      dup1\n        /* \"#utility.yul\":4745:4747   */\n      0x40\n        /* \"#utility.yul\":4733:4742   */\n      dup4\n        /* \"#utility.yul\":4724:4731   */\n      dup6\n        /* \"#utility.yul\":4720:4743   */\n      sub\n        /* \"#utility.yul\":4716:4748   */\n      slt\n        /* \"#utility.yul\":4713:4832   */\n      iszero\n      tag_141\n      jumpi\n        /* \"#utility.yul\":4751:4830   */\n      tag_142\n      tag_38\n      jump\t// in\n    tag_142:\n        /* \"#utility.yul\":4713:4832   */\n    tag_141:\n        /* \"#utility.yul\":4871:4872   */\n      0x00\n        /* \"#utility.yul\":4896:4949   */\n      tag_143\n        /* \"#utility.yul\":4941:4948   */\n      dup6\n        /* \"#utility.yul\":4932:4938   */\n      dup3\n        /* \"#utility.yul\":4921:4930   */\n      dup7\n        /* \"#utility.yul\":4917:4939   */\n      add\n        /* \"#utility.yul\":4896:4949   */\n      tag_43\n      jump\t// in\n    tag_143:\n        /* \"#utility.yul\":4886:4949   */\n      swap3\n      pop\n        /* \"#utility.yul\":4842:4959   */\n      pop\n        /* \"#utility.yul\":4998:5000   */\n      0x20\n        /* \"#utility.yul\":5024:5077   */\n      tag_144\n        /* \"#utility.yul\":5069:5076   */\n      dup6\n        /* \"#utility.yul\":5060:5066   */\n      dup3\n        /* \"#utility.yul\":5049:5058   */\n      dup7\n        /* \"#utility.yul\":5045:5067   */\n      add\n        /* \"#utility.yul\":5024:5077   */\n      tag_57\n      jump\t// in\n    tag_144:\n        /* \"#utility.yul\":5014:5077   */\n      swap2\n      pop\n        /* \"#utility.yul\":4969:5087   */\n      pop\n        /* \"#utility.yul\":4620:5094   */\n      swap3\n      pop\n      swap3\n      swap1\n      pop\n      jump\t// out\n        /* \"#utility.yul\":5100:5208   */\n    tag_58:\n        /* \"#utility.yul\":5177:5201   */\n      tag_146\n        /* \"#utility.yul\":5195:5200   */\n      dup2\n        /* \"#utility.yul\":5177:5201   */\n      tag_44\n      jump\t// in\n    tag_146:\n        /* \"#utility.yul\":5172:5175   */\n      dup3\n        /* \"#utility.yul\":5165:5202   */\n      mstore\n        /* \"#utility.yul\":5100:5208   */\n      pop\n      pop\n      jump\t// out\n        /* \"#utility.yul\":5214:5322   */\n    tag_59:\n        /* \"#utility.yul\":5291:5315   */\n      tag_148\n        /* \"#utility.yul\":5309:5314   */\n      dup2\n        /* \"#utility.yul\":5291:5315   */\n      tag_41\n      jump\t// in\n    tag_148:\n        /* \"#utility.yul\":5286:5289   */\n      dup3\n        /* \"#utility.yul\":5279:5316   */\n      mstore\n        /* \"#utility.yul\":5214:5322   */\n      pop\n      pop\n      jump\t// out\n        /* \"#utility.yul\":5328:5427   */\n    tag_60:\n        /* \"#utility.yul\":5380:5386   */\n      0x00\n        /* \"#utility.yul\":5414:5419   */\n      dup2\n        /* \"#utility.yul\":5408:5420   */\n      mload\n        /* \"#utility.yul\":5398:5420   */\n      swap1\n      pop\n        /* \"#utility.yul\":5328:5427   */\n      swap2\n      swap1\n      pop\n      jump\t// out\n        /* \"#utility.yul\":5433:5592   */\n    tag_61:\n        /* \"#utility.yul\":5507:5518   */\n      0x00\n        /* \"#utility.yul\":5541:5547   */\n      dup3\n        /* \"#utility.yul\":5536:5539   */\n      dup3\n        /* \"#utility.yul\":5529:5548   */\n      mstore\n        /* \"#utility.yul\":5581:5585   */\n      0x20\n        /* \"#utility.yul\":5576:5579   */\n      dup3\n        /* \"#utility.yul\":5572:5586   */\n      add\n        /* \"#utility.yul\":5557:5586   */\n      swap1\n      pop\n        /* \"#utility.yul\":5433:5592   */\n      swap3\n      swap2\n      pop\n      pop\n      jump\t// out\n        /* \"#utility.yul\":5598:5737   */\n    tag_62:\n        /* \"#utility.yul\":5687:5693   */\n      dup3\n        /* \"#utility.yul\":5682:5685   */\n      dup2\n        /* \"#utility.yul\":5677:5680   */\n      dup4\n        /* \"#utility.yul\":5671:5694   */\n      mcopy\n        /* \"#utility.yul\":5728:5729   */\n      0x00\n        /* \"#utility.yul\":5719:5725   */\n      dup4\n        /* \"#utility.yul\":5714:5717   */\n      dup4\n        /* \"#utility.yul\":5710:5726   */\n      add\n        /* \"#utility.yul\":5703:5730   */\n      mstore\n        /* \"#utility.yul\":5598:5737   */\n      pop\n      pop\n      pop\n      jump\t// out\n        /* \"#utility.yul\":5743:6100   */\n    tag_63:\n        /* \"#utility.yul\":5821:5824   */\n      0x00\n        /* \"#utility.yul\":5849:5888   */\n      tag_153\n        /* \"#utility.yul\":5882:5887   */\n      dup3\n        /* \"#utility.yul\":5849:5888   */\n      tag_60\n      jump\t// in\n    tag_153:\n        /* \"#utility.yul\":5904:5965   */\n      tag_154\n        /* \"#utility.yul\":5958:5964   */\n      dup2\n        /* \"#utility.yul\":5953:5956   */\n      dup6\n        /* \"#utility.yul\":5904:5965   */\n      tag_61\n      jump\t// in\n    tag_154:\n        /* \"#utility.yul\":5897:5965   */\n      swap4\n      pop\n        /* \"#utility.yul\":5974:6039   */\n      tag_155\n        /* \"#utility.yul\":6032:6038   */\n      dup2\n        /* \"#utility.yul\":6027:6030   */\n      dup6\n        /* \"#utility.yul\":6020:6024   */\n      0x20\n        /* \"#utility.yul\":6013:6018   */\n      dup7\n        /* \"#utility.yul\":6009:6025   */\n      add\n        /* \"#utility.yul\":5974:6039   */\n      tag_62\n      jump\t// in\n    tag_155:\n        /* \"#utility.yul\":6064:6093   */\n      tag_156\n        /* \"#utility.yul\":6086:6092   */\n      dup2\n        /* \"#utility.yul\":6064:6093   */\n      tag_48\n      jump\t// in\n    tag_156:\n        /* \"#utility.yul\":6059:6062   */\n      dup5\n        /* \"#utility.yul\":6055:6094   */\n      add\n        /* \"#utility.yul\":6048:6094   */\n      swap2\n      pop\n        /* \"#utility.yul\":5825:6100   */\n      pop\n        /* \"#utility.yul\":5743:6100   */\n      swap3\n      swap2\n      pop\n      pop\n      jump\t// out\n        /* \"#utility.yul\":6156:7116   */\n    tag_64:\n        /* \"#utility.yul\":6271:6274   */\n      0x00\n        /* \"#utility.yul\":6307:6311   */\n      0x80\n        /* \"#utility.yul\":6302:6305   */\n      dup4\n        /* \"#utility.yul\":6298:6312   */\n      add\n        /* \"#utility.yul\":6396:6400   */\n      0x00\n        /* \"#utility.yul\":6389:6394   */\n      dup4\n        /* \"#utility.yul\":6385:6401   */\n      add\n        /* \"#utility.yul\":6379:6402   */\n      mload\n        /* \"#utility.yul\":6415:6478   */\n      tag_158\n        /* \"#utility.yul\":6472:6476   */\n      0x00\n        /* \"#utility.yul\":6467:6470   */\n      dup7\n        /* \"#utility.yul\":6463:6477   */\n      add\n        /* \"#utility.yul\":6449:6461   */\n      dup3\n        /* \"#utility.yul\":6415:6478   */\n      tag_58\n      jump\t// in\n    tag_158:\n        /* \"#utility.yul\":6322:6488   */\n      pop\n        /* \"#utility.yul\":6575:6579   */\n      0x20\n        /* \"#utility.yul\":6568:6573   */\n      dup4\n        /* \"#utility.yul\":6564:6580   */\n      add\n        /* \"#utility.yul\":6558:6581   */\n      mload\n        /* \"#utility.yul\":6594:6657   */\n      tag_159\n        /* \"#utility.yul\":6651:6655   */\n      0x20\n        /* \"#utility.yul\":6646:6649   */\n      dup7\n        /* \"#utility.yul\":6642:6656   */\n      add\n        /* \"#utility.yul\":6628:6640   */\n      dup3\n        /* \"#utility.yul\":6594:6657   */\n      tag_58\n      jump\t// in\n    tag_159:\n        /* \"#utility.yul\":6498:6667   */\n      pop\n        /* \"#utility.yul\":6749:6753   */\n      0x40\n        /* \"#utility.yul\":6742:6747   */\n      dup4\n        /* \"#utility.yul\":6738:6754   */\n      add\n        /* \"#utility.yul\":6732:6755   */\n      mload\n        /* \"#utility.yul\":6768:6831   */\n      tag_160\n        /* \"#utility.yul\":6825:6829   */\n      0x40\n        /* \"#utility.yul\":6820:6823   */\n      dup7\n        /* \"#utility.yul\":6816:6830   */\n      add\n        /* \"#utility.yul\":6802:6814   */\n      dup3\n        /* \"#utility.yul\":6768:6831   */\n      tag_59\n      jump\t// in\n    tag_160:\n        /* \"#utility.yul\":6677:6841   */\n      pop\n        /* \"#utility.yul\":6926:6930   */\n      0x60\n        /* \"#utility.yul\":6919:6924   */\n      dup4\n        /* \"#utility.yul\":6915:6931   */\n      add\n        /* \"#utility.yul\":6909:6932   */\n      mload\n        /* \"#utility.yul\":6979:6982   */\n      dup5\n        /* \"#utility.yul\":6973:6977   */\n      dup3\n        /* \"#utility.yul\":6969:6983   */\n      sub\n        /* \"#utility.yul\":6962:6966   */\n      0x60\n        /* \"#utility.yul\":6957:6960   */\n      dup7\n        /* \"#utility.yul\":6953:6967   */\n      add\n        /* \"#utility.yul\":6946:6984   */\n      mstore\n        /* \"#utility.yul\":7005:7078   */\n      tag_161\n        /* \"#utility.yul\":7073:7077   */\n      dup3\n        /* \"#utility.yul\":7059:7071   */\n      dup3\n        /* \"#utility.yul\":7005:7078   */\n      tag_63\n      jump\t// in\n    tag_161:\n        /* \"#utility.yul\":6997:7078   */\n      swap2\n      pop\n        /* \"#utility.yul\":6851:7089   */\n      pop\n        /* \"#utility.yul\":7106:7110   */\n      dup1\n        /* \"#utility.yul\":7099:7110   */\n      swap2\n      pop\n        /* \"#utility.yul\":6276:7116   */\n      pop\n        /* \"#utility.yul\":6156:7116   */\n      swap3\n      swap2\n      pop\n      pop\n      jump\t// out\n        /* \"#utility.yul\":7122:7487   */\n    tag_22:\n        /* \"#utility.yul\":7261:7265   */\n      0x00\n        /* \"#utility.yul\":7299:7301   */\n      0x20\n        /* \"#utility.yul\":7288:7297   */\n      dup3\n        /* \"#utility.yul\":7284:7302   */\n      add\n        /* \"#utility.yul\":7276:7302   */\n      swap1\n      pop\n        /* \"#utility.yul\":7348:7357   */\n      dup2\n        /* \"#utility.yul\":7342:7346   */\n      dup2\n        /* \"#utility.yul\":7338:7358   */\n      sub\n        /* \"#utility.yul\":7334:7335   */\n      0x00\n        /* \"#utility.yul\":7323:7332   */\n      dup4\n        /* \"#utility.yul\":7319:7336   */\n      add\n        /* \"#utility.yul\":7312:7359   */\n      mstore\n        /* \"#utility.yul\":7376:7480   */\n      tag_163\n        /* \"#utility.yul\":7475:7479   */\n      dup2\n        /* \"#utility.yul\":7466:7472   */\n      dup5\n        /* \"#utility.yul\":7376:7480   */\n      tag_64\n      jump\t// in\n    tag_163:\n        /* \"#utility.yul\":7368:7480   */\n      swap1\n      pop\n        /* \"#utility.yul\":7122:7487   */\n      swap3\n      swap2\n      pop\n      pop\n      jump\t// out\n        /* \"#utility.yul\":7493:7673   */\n    tag_65:\n        /* \"#utility.yul\":7541:7618   */\n      0x4e487b7100000000000000000000000000000000000000000000000000000000\n        /* \"#utility.yul\":7538:7539   */\n      0x00\n        /* \"#utility.yul\":7531:7619   */\n      mstore\n        /* \"#utility.yul\":7638:7642   */\n      0x11\n        /* \"#utility.yul\":7635:7636   */\n      0x04\n        /* \"#utility.yul\":7628:7643   */\n      mstore\n        /* \"#utility.yul\":7662:7666   */\n      0x24\n        /* \"#utility.yul\":7659:7660   */\n      0x00\n        /* \"#utility.yul\":7652:7667   */\n      revert\n        /* \"#utility.yul\":7679:7912   */\n    tag_25:\n        /* \"#utility.yul\":7718:7721   */\n      0x00\n        /* \"#utility.yul\":7741:7765   */\n      tag_166\n        /* \"#utility.yul\":7759:7764   */\n      dup3\n        /* \"#utility.yul\":7741:7765   */\n      tag_44\n      jump\t// in\n    tag_166:\n        /* \"#utility.yul\":7732:7765   */\n      swap2\n      pop\n        /* \"#utility.yul\":7787:7853   */\n      0xffffffffffffffffffffffffffffffffffffffffffffffffffffffffffffffff\n        /* \"#utility.yul\":7780:7785   */\n      dup3\n        /* \"#utility.yul\":7777:7854   */\n      sub\n        /* \"#utility.yul\":7774:7877   */\n      tag_167\n      jumpi\n        /* \"#utility.yul\":7857:7875   */\n      tag_168\n      tag_65\n      jump\t// in\n    tag_168:\n        /* \"#utility.yul\":7774:7877   */\n    tag_167:\n        /* \"#utility.yul\":7904:7905   */\n      0x01\n        /* \"#utility.yul\":7897:7902   */\n      dup3\n        /* \"#utility.yul\":7893:7906   */\n      add\n        /* \"#utility.yul\":7886:7906   */\n      swap1\n      pop\n        /* \"#utility.yul\":7679:7912   */\n      swap2\n      swap1\n      pop\n      jump\t// out\n        /* \"#utility.yul\":7918:8098   */\n    tag_66:\n        /* \"#utility.yul\":7966:8043   */\n      0x4e487b7100000000000000000000000000000000000000000000000000000000\n        /* \"#utility.yul\":7963:7964   */\n      0x00\n        /* \"#utility.yul\":7956:8044   */\n      mstore\n        /* \"#utility.yul\":8063:8067   */\n      0x22\n        /* \"#utility.yul\":8060:8061   */\n      0x04\n        /* \"#utility.yul\":8053:8068   */\n      mstore\n        /* \"#utility.yul\":8087:8091   */\n      0x24\n        /* \"#utility.yul\":8084:8085   */\n      0x00\n        /* \"#utility.yul\":8077:8092   */\n      revert\n        /* \"#utility.yul\":8104:8424   */\n    tag_32:\n        /* \"#utility.yul\":8148:8154   */\n      0x00\n        /* \"#utility.yul\":8185:8186   */\n      0x02\n        /* \"#utility.yul\":8179:8183   */\n      dup3\n        /* \"#utility.yul\":8175:8187   */\n      div\n        /* \"#utility.yul\":8165:8187   */\n      swap1\n      pop\n        /* \"#utility.yul\":8232:8233   */\n      0x01\n        /* \"#utility.yul\":8226:8230   */\n      dup3\n        /* \"#utility.yul\":8222:8234   */\n      and\n        /* \"#utility.yul\":8253:8271   */\n      dup1\n        /* \"#utility.yul\":8243:8324   */\n      tag_171\n      jumpi\n        /* \"#utility.yul\":8309:8313   */\n      0x7f\n        /* \"#utility.yul\":8301:8307   */\n      dup3\n        /* \"#utility.yul\":8297:8314   */\n      and\n        /* \"#utility.yul\":8287:8314   */\n      swap2\n      pop\n        /* \"#utility.yul\":8243:8324   */\n    tag_171:\n        /* \"#utility.yul\":8371:8373   */\n      0x20\n        /* \"#utility.yul\":8363:8369   */\n      dup3\n        /* \"#utility.yul\":8360:8374   */\n      lt\n        /* \"#utility.yul\":8340:8358   */\n      dup2\n        /* \"#utility.yul\":8337:8375   */\n      sub\n        /* \"#utility.yul\":8334:8418   */\n      tag_172\n      jumpi\n        /* \"#utility.yul\":8390:8408   */\n      tag_173\n      tag_66\n      jump\t// in\n    tag_173:\n        /* \"#utility.yul\":8334:8418   */\n    tag_172:\n        /* \"#utility.yul\":8155:8424   */\n      pop\n        /* \"#utility.yul\":8104:8424   */\n      swap2\n      swap1\n      pop\n      jump\t// out\n        /* \"#utility.yul\":8430:8571   */\n    tag_67:\n        /* \"#utility.yul\":8479:8483   */\n      0x00\n        /* \"#utility.yul\":8502:8505   */\n      dup2\n        /* \"#utility.yul\":8494:8505   */\n      swap1\n      pop\n        /* \"#utility.yul\":8525:8528   */\n      dup2\n        /* \"#utility.yul\":8522:8523   */\n      0x00\n        /* \"#utility.yul\":8515:8529   */\n      mstore\n        /* \"#utility.yul\":8559:8563   */\n      0x20\n        /* \"#utility.yul\":8556:8557   */\n      0x00\n        /* \"#utility.yul\":8546:8564   */\n      keccak256\n        /* \"#utility.yul\":8538:8564   */\n      swap1\n      pop\n        /* \"#utility.yul\":8430:8571   */\n      swap2\n      swap1\n      pop\n      jump\t// out\n        /* \"#utility.yul\":8577:8670   */\n    tag_68:\n        /* \"#utility.yul\":8614:8620   */\n      0x00\n        /* \"#utility.yul\":8661:8663   */\n      0x20\n        /* \"#utility.yul\":8656:8658   */\n      0x1f\n        /* \"#utility.yul\":8649:8654   */\n      dup4\n        /* \"#utility.yul\":8645:8659   */\n      add\n        /* \"#utility.yul\":8641:8664   */\n      div\n        /* \"#utility.yul\":8631:8664   */\n      swap1\n      pop\n        /* \"#utility.yul\":8577:8670   */\n      swap2\n      swap1\n      pop\n      jump\t// out\n        /* \"#utility.yul\":8676:8783   */\n    tag_69:\n        /* \"#utility.yul\":8720:8728   */\n      0x00\n        /* \"#utility.yul\":8770:8775   */\n      dup3\n        /* \"#utility.yul\":8764:8768   */\n      dup3\n        /* \"#utility.yul\":8760:8776   */\n      shl\n        /* \"#utility.yul\":8739:8776   */\n      swap1\n      pop\n        /* \"#utility.yul\":8676:8783   */\n      swap3\n      swap2\n      pop\n      pop\n      jump\t// out\n        /* \"#utility.yul\":8789:9182   */\n    tag_70:\n        /* \"#utility.yul\":8858:8864   */\n      0x00\n        /* \"#utility.yul\":8908:8909   */\n      0x08\n        /* \"#utility.yul\":8896:8906   */\n      dup4\n        /* \"#utility.yul\":8892:8910   */\n      mul\n        /* \"#utility.yul\":8931:9028   */\n      tag_178\n        /* \"#utility.yul\":8961:9027   */\n      0xffffffffffffffffffffffffffffffffffffffffffffffffffffffffffffffff\n        /* \"#utility.yul\":8950:8959   */\n      dup3\n        /* \"#utility.yul\":8931:9028   */\n      tag_69\n      jump\t// in\n    tag_178:\n        /* \"#utility.yul\":9049:9088   */\n      tag_179\n        /* \"#utility.yul\":9079:9087   */\n      dup7\n        /* \"#utility.yul\":9068:9077   */\n      dup4\n        /* \"#utility.yul\":9049:9088   */\n      tag_69\n      jump\t// in\n    tag_179:\n        /* \"#utility.yul\":9037:9088   */\n      swap6\n      pop\n        /* \"#utility.yul\":9121:9125   */\n      dup1\n        /* \"#utility.yul\":9117:9126   */\n      not\n        /* \"#utility.yul\":9110:9115   */\n      dup5\n        /* \"#utility.yul\":9106:9127   */\n      and\n        /* \"#utility.yul\":9097:9127   */\n      swap4\n      pop\n        /* \"#utility.yul\":9170:9174   */\n      dup1\n        /* \"#utility.yul\":9160:9168   */\n      dup7\n        /* \"#utility.yul\":9156:9175   */\n      and\n        /* \"#utility.yul\":9149:9154   */\n      dup5\n        /* \"#utility.yul\":9146:9176   */\n      or\n        /* \"#utility.yul\":9136:9176   */\n      swap3\n      pop\n        /* \"#utility.yul\":8865:9182   */\n      pop\n      pop\n        /* \"#utility.yul\":8789:9182   */\n      swap4\n      swap3\n      pop\n      pop\n      pop\n      jump\t// out\n        /* \"#utility.yul\":9188:9248   */\n    tag_71:\n        /* \"#utility.yul\":9216:9219   */\n      0x00\n        /* \"#utility.yul\":9237:9242   */\n      dup2\n        /* \"#utility.yul\":9230:9242   */\n      swap1\n      pop\n        /* \"#utility.yul\":9188:9248   */\n      swap2\n      swap1\n      pop\n      jump\t// out\n        /* \"#utility.yul\":9254:9396   */\n    tag_72:\n        /* \"#utility.yul\":9304:9313   */\n      0x00\n        /* \"#utility.yul\":9337:9390   */\n      tag_182\n        /* \"#utility.yul\":9355:9389   */\n      tag_183\n        /* \"#utility.yul\":9364:9388   */\n      tag_184\n        /* \"#utility.yul\":9382:9387   */\n      dup5\n        /* \"#utility.yul\":9364:9388   */\n      tag_44\n      jump\t// in\n    tag_184:\n        /* \"#utility.yul\":9355:9389   */\n      tag_71\n      jump\t// in\n    tag_183:\n        /* \"#utility.yul\":9337:9390   */\n      tag_44\n      jump\t// in\n    tag_182:\n        /* \"#utility.yul\":9324:9390   */\n      swap1\n      pop\n        /* \"#utility.yul\":9254:9396   */\n      swap2\n      swap1\n      pop\n      jump\t// out\n        /* \"#utility.yul\":9402:9477   */\n    tag_73:\n        /* \"#utility.yul\":9445:9448   */\n      0x00\n        /* \"#utility.yul\":9466:9471   */\n      dup2\n        /* \"#utility.yul\":9459:9471   */\n      swap1\n      pop\n        /* \"#utility.yul\":9402:9477   */\n      swap2\n      swap1\n      pop\n      jump\t// out\n        /* \"#utility.yul\":9483:9752   */\n    tag_74:\n        /* \"#utility.yul\":9593:9632   */\n      tag_187\n        /* \"#utility.yul\":9624:9631   */\n      dup4\n        /* \"#utility.yul\":9593:9632   */\n      tag_72\n      jump\t// in\n    tag_187:\n        /* \"#utility.yul\":9654:9745   */\n      tag_188\n        /* \"#utility.yul\":9703:9744   */\n      tag_189\n        /* \"#utility.yul\":9727:9743   */\n      dup3\n        /* \"#utility.yul\":9703:9744   */\n      tag_73\n      jump\t// in\n    tag_189:\n        /* \"#utility.yul\":9695:9701   */\n      dup5\n        /* \"#utility.yul\":9688:9692   */\n      dup5\n        /* \"#utility.yul\":9682:9693   */\n      sload\n        /* \"#utility.yul\":9654:9745   */\n      tag_70\n      jump\t// in\n    tag_188:\n        /* \"#utility.yul\":9648:9652   */\n      dup3\n        /* \"#utility.yul\":9641:9746   */\n      sstore\n        /* \"#utility.yul\":9559:9752   */\n      pop\n        /* \"#utility.yul\":9483:9752   */\n      pop\n      pop\n      pop\n      jump\t// out\n        /* \"#utility.yul\":9758:9831   */\n    tag_75:\n        /* \"#utility.yul\":9803:9806   */\n      0x00\n        /* \"#utility.yul\":9758:9831   */\n      swap1\n      jump\t// out\n        /* \"#utility.yul\":9837:10026   */\n    tag_76:\n        /* \"#utility.yul\":9914:9946   */\n      tag_192\n      tag_75\n      jump\t// in\n    tag_192:\n        /* \"#utility.yul\":9955:10020   */\n      tag_193\n        /* \"#utility.yul\":10013:10019   */\n      dup2\n        /* \"#utility.yul\":10005:10011   */\n      dup5\n        /* \"#utility.yul\":9999:10003   */\n      dup5\n        /* \"#utility.yul\":9955:10020   */\n      tag_74\n      jump\t// in\n    tag_193:\n        /* \"#utility.yul\":9890:10026   */\n      pop\n        /* \"#utility.yul\":9837:10026   */\n      pop\n      pop\n      jump\t// out\n        /* \"#utility.yul\":10032:10218   */\n    tag_77:\n        /* \"#utility.yul\":10092:10212   */\n    tag_195:\n        /* \"#utility.yul\":10109:10112   */\n      dup2\n        /* \"#utility.yul\":10102:10107   */\n      dup2\n        /* \"#utility.yul\":10099:10113   */\n      lt\n        /* \"#utility.yul\":10092:10212   */\n      iszero\n      tag_197\n      jumpi\n        /* \"#utility.yul\":10163:10202   */\n      tag_198\n        /* \"#utility.yul\":10200:10201   */\n      0x00\n        /* \"#utility.yul\":10193:10198   */\n      dup3\n        /* \"#utility.yul\":10163:10202   */\n      tag_76\n      jump\t// in\n    tag_198:\n        /* \"#utility.yul\":10136:10137   */\n      0x01\n        /* \"#utility.yul\":10129:10134   */\n      dup2\n        /* \"#utility.yul\":10125:10138   */\n      add\n        /* \"#utility.yul\":10116:10138   */\n      swap1\n      pop\n        /* \"#utility.yul\":10092:10212   */\n      jump(tag_195)\n    tag_197:\n        /* \"#utility.yul\":10032:10218   */\n      pop\n      pop\n      jump\t// out\n        /* \"#utility.yul\":10224:10767   */\n    tag_78:\n        /* \"#utility.yul\":10325:10327   */\n      0x1f\n        /* \"#utility.yul\":10320:10323   */\n      dup3\n        /* \"#utility.yul\":10317:10328   */\n      gt\n        /* \"#utility.yul\":10314:10760   */\n      iszero\n      tag_200\n      jumpi\n        /* \"#utility.yul\":10359:10397   */\n      tag_201\n        /* \"#utility.yul\":10391:10396   */\n      dup2\n        /* \"#utility.yul\":10359:10397   */\n      tag_67\n      jump\t// in\n    tag_201:\n        /* \"#utility.yul\":10443:10472   */\n      tag_202\n        /* \"#utility.yul\":10461:10471   */\n      dup5\n        /* \"#utility.yul\":10443:10472   */\n      tag_68\n      jump\t// in\n    tag_202:\n        /* \"#utility.yul\":10433:10441   */\n      dup2\n        /* \"#utility.yul\":10429:10473   */\n      add\n        /* \"#utility.yul\":10626:10628   */\n      0x20\n        /* \"#utility.yul\":10614:10624   */\n      dup6\n        /* \"#utility.yul\":10611:10629   */\n      lt\n        /* \"#utility.yul\":10608:10657   */\n      iszero\n      tag_203\n      jumpi\n        /* \"#utility.yul\":10647:10655   */\n      dup2\n        /* \"#utility.yul\":10632:10655   */\n      swap1\n      pop\n        /* \"#utility.yul\":10608:10657   */\n    tag_203:\n        /* \"#utility.yul\":10670:10750   */\n      tag_204\n        /* \"#utility.yul\":10726:10748   */\n      tag_205\n        /* \"#utility.yul\":10744:10747   */\n      dup6\n        /* \"#utility.yul\":10726:10748   */\n      tag_68\n      jump\t// in\n    tag_205:\n        /* \"#utility.yul\":10716:10724   */\n      dup4\n        /* \"#utility.yul\":10712:10749   */\n      add\n        /* \"#utility.yul\":10699:10710   */\n      dup3\n        /* \"#utility.yul\":10670:10750   */\n      tag_77\n      jump\t// in\n    tag_204:\n        /* \"#utility.yul\":10329:10760   */\n      pop\n      pop\n        /* \"#utility.yul\":10314:10760   */\n    tag_200:\n        /* \"#utility.yul\":10224:10767   */\n      pop\n      pop\n      pop\n      jump\t// out\n        /* \"#utility.yul\":10773:10890   */\n    tag_79:\n        /* \"#utility.yul\":10827:10835   */\n      0x00\n        /* \"#utility.yul\":10877:10882   */\n      dup3\n        /* \"#utility.yul\":10871:10875   */\n      dup3\n        /* \"#utility.yul\":10867:10883   */\n      shr\n        /* \"#utility.yul\":10846:10883   */\n      swap1\n      pop\n        /* \"#utility.yul\":10773:10890   */\n      swap3\n      swap2\n      pop\n      pop\n      jump\t// out\n        /* \"#utility.yul\":10896:11065   */\n    tag_80:\n        /* \"#utility.yul\":10940:10946   */\n      0x00\n        /* \"#utility.yul\":10973:11024   */\n      tag_208\n        /* \"#utility.yul\":11021:11022   */\n      0x00\n        /* \"#utility.yul\":11017:11023   */\n      not\n        /* \"#utility.yul\":11009:11014   */\n      dup5\n        /* \"#utility.yul\":11006:11007   */\n      0x08\n        /* \"#utility.yul\":11002:11015   */\n      mul\n        /* \"#utility.yul\":10973:11024   */\n      tag_79\n      jump\t// in\n    tag_208:\n        /* \"#utility.yul\":10969:11025   */\n      not\n        /* \"#utility.yul\":11054:11058   */\n      dup1\n        /* \"#utility.yul\":11048:11052   */\n      dup4\n        /* \"#utility.yul\":11044:11059   */\n      and\n        /* \"#utility.yul\":11034:11059   */\n      swap2\n      pop\n        /* \"#utility.yul\":10947:11065   */\n      pop\n        /* \"#utility.yul\":10896:11065   */\n      swap3\n      swap2\n      pop\n      pop\n      jump\t// out\n        /* \"#utility.yul\":11070:11365   */\n    tag_81:\n        /* \"#utility.yul\":11146:11150   */\n      0x00\n        /* \"#utility.yul\":11292:11321   */\n      tag_210\n        /* \"#utility.yul\":11317:11320   */\n      dup4\n        /* \"#utility.yul\":11311:11315   */\n      dup4\n        /* \"#utility.yul\":11292:11321   */\n      tag_80\n      jump\t// in\n    tag_210:\n        /* \"#utility.yul\":11284:11321   */\n      swap2\n      pop\n        /* \"#utility.yul\":11354:11357   */\n      dup3\n        /* \"#utility.yul\":11351:11352   */\n      0x02\n        /* \"#utility.yul\":11347:11358   */\n      mul\n        /* \"#utility.yul\":11341:11345   */\n      dup3\n        /* \"#utility.yul\":11338:11359   */\n      or\n        /* \"#utility.yul\":11330:11359   */\n      swap1\n      pop\n        /* \"#utility.yul\":11070:11365   */\n      swap3\n      swap2\n      pop\n      pop\n      jump\t// out\n        /* \"#utility.yul\":11370:12765   */\n    tag_27:\n        /* \"#utility.yul\":11487:11524   */\n      tag_212\n        /* \"#utility.yul\":11520:11523   */\n      dup3\n        /* \"#utility.yul\":11487:11524   */\n      tag_60\n      jump\t// in\n    tag_212:\n        /* \"#utility.yul\":11589:11607   */\n      0xffffffffffffffff\n        /* \"#utility.yul\":11581:11587   */\n      dup2\n        /* \"#utility.yul\":11578:11608   */\n      gt\n        /* \"#utility.yul\":11575:11631   */\n      iszero\n      tag_213\n      jumpi\n        /* \"#utility.yul\":11611:11629   */\n      tag_214\n      tag_49\n      jump\t// in\n    tag_214:\n        /* \"#utility.yul\":11575:11631   */\n    tag_213:\n        /* \"#utility.yul\":11655:11693   */\n      tag_215\n        /* \"#utility.yul\":11687:11691   */\n      dup3\n        /* \"#utility.yul\":11681:11692   */\n      sload\n        /* \"#utility.yul\":11655:11693   */\n      tag_32\n      jump\t// in\n    tag_215:\n        /* \"#utility.yul\":11740:11807   */\n      tag_216\n        /* \"#utility.yul\":11800:11806   */\n      dup3\n        /* \"#utility.yul\":11792:11798   */\n      dup3\n        /* \"#utility.yul\":11786:11790   */\n      dup6\n        /* \"#utility.yul\":11740:11807   */\n      tag_78\n      jump\t// in\n    tag_216:\n        /* \"#utility.yul\":11834:11835   */\n      0x00\n        /* \"#utility.yul\":11858:11862   */\n      0x20\n        /* \"#utility.yul\":11845:11862   */\n      swap1\n      pop\n        /* \"#utility.yul\":11890:11892   */\n      0x1f\n        /* \"#utility.yul\":11882:11888   */\n      dup4\n        /* \"#utility.yul\":11879:11893   */\n      gt\n        /* \"#utility.yul\":11907:11908   */\n      0x01\n        /* \"#utility.yul\":11902:12520   */\n      dup2\n      eq\n      tag_218\n      jumpi\n        /* \"#utility.yul\":12564:12565   */\n      0x00\n        /* \"#utility.yul\":12581:12587   */\n      dup5\n        /* \"#utility.yul\":12578:12655   */\n      iszero\n      tag_219\n      jumpi\n        /* \"#utility.yul\":12630:12639   */\n      dup3\n        /* \"#utility.yul\":12625:12628   */\n      dup8\n        /* \"#utility.yul\":12621:12640   */\n      add\n        /* \"#utility.yul\":12615:12641   */\n      mload\n        /* \"#utility.yul\":12606:12641   */\n      swap1\n      pop\n        /* \"#utility.yul\":12578:12655   */\n    tag_219:\n        /* \"#utility.yul\":12681:12748   */\n      tag_220\n        /* \"#utility.yul\":12741:12747   */\n      dup6\n        /* \"#utility.yul\":12734:12739   */\n      dup3\n        /* \"#utility.yul\":12681:12748   */\n      tag_81\n      jump\t// in\n    tag_220:\n        /* \"#utility.yul\":12675:12679   */\n      dup7\n        /* \"#utility.yul\":12668:12749   */\n      sstore\n        /* \"#utility.yul\":12537:12759   */\n      pop\n        /* \"#utility.yul\":11872:12759   */\n      jump(tag_217)\n        /* \"#utility.yul\":11902:12520   */\n    tag_218:\n        /* \"#utility.yul\":11954:11958   */\n      0x1f\n        /* \"#utility.yul\":11950:11959   */\n      not\n        /* \"#utility.yul\":11942:11948   */\n      dup5\n        /* \"#utility.yul\":11938:11960   */\n      and\n        /* \"#utility.yul\":11988:12025   */\n      tag_221\n        /* \"#utility.yul\":12020:12024   */\n      dup7\n        /* \"#utility.yul\":11988:12025   */\n      tag_67\n      jump\t// in\n    tag_221:\n        /* \"#utility.yul\":12047:12048   */\n      0x00\n        /* \"#utility.yul\":12061:12269   */\n    tag_222:\n        /* \"#utility.yul\":12075:12082   */\n      dup3\n        /* \"#utility.yul\":12072:12073   */\n      dup2\n        /* \"#utility.yul\":12069:12083   */\n      lt\n        /* \"#utility.yul\":12061:12269   */\n      iszero\n      tag_224\n      jumpi\n        /* \"#utility.yul\":12154:12163   */\n      dup5\n        /* \"#utility.yul\":12149:12152   */\n      dup10\n        /* \"#utility.yul\":12145:12164   */\n      add\n        /* \"#utility.yul\":12139:12165   */\n      mload\n        /* \"#utility.yul\":12131:12137   */\n      dup3\n        /* \"#utility.yul\":12124:12166   */\n      sstore\n        /* \"#utility.yul\":12205:12206   */\n      0x01\n        /* \"#utility.yul\":12197:12203   */\n      dup3\n        /* \"#utility.yul\":12193:12207   */\n      add\n        /* \"#utility.yul\":12183:12207   */\n      swap2\n      pop\n        /* \"#utility.yul\":12252:12254   */\n      0x20\n        /* \"#utility.yul\":12241:12250   */\n      dup6\n        /* \"#utility.yul\":12237:12255   */\n      add\n        /* \"#utility.yul\":12224:12255   */\n      swap5\n      pop\n        /* \"#utility.yul\":12098:12102   */\n      0x20\n        /* \"#utility.yul\":12095:12096   */\n      dup2\n        /* \"#utility.yul\":12091:12103   */\n      add\n        /* \"#utility.yul\":12086:12103   */\n      swap1\n      pop\n        /* \"#utility.yul\":12061:12269   */\n      jump(tag_222)\n    tag_224:\n        /* \"#utility.yul\":12297:12303   */\n      dup7\n        /* \"#utility.yul\":12288:12295   */\n      dup4\n        /* \"#utility.yul\":12285:12304   */\n      lt\n        /* \"#utility.yul\":12282:12461   */\n      iszero\n      tag_225\n      jumpi\n        /* \"#utility.yul\":12355:12364   */\n      dup5\n        /* \"#utility.yul\":12350:12353   */\n      dup10\n        /* \"#utility.yul\":12346:12365   */\n      add\n        /* \"#utility.yul\":12340:12366   */\n      mload\n        /* \"#utility.yul\":12398:12446   */\n      tag_226\n        /* \"#utility.yul\":12440:12444   */\n      0x1f\n        /* \"#utility.yul\":12432:12438   */\n      dup10\n        /* \"#utility.yul\":12428:12445   */\n      and\n        /* \"#utility.yul\":12417:12426   */\n      dup3\n        /* \"#utility.yul\":12398:12446   */\n      tag_80\n      jump\t// in\n    tag_226:\n        /* \"#utility.yul\":12390:12396   */\n      dup4\n        /* \"#utility.yul\":12383:12447   */\n      sstore\n        /* \"#utility.yul\":12305:12461   */\n      pop\n        /* \"#utility.yul\":12282:12461   */\n    tag_225:\n        /* \"#utility.yul\":12507:12508   */\n      0x01\n        /* \"#utility.yul\":12503:12504   */\n      0x02\n        /* \"#utility.yul\":12495:12501   */\n      dup9\n        /* \"#utility.yul\":12491:12505   */\n      mul\n        /* \"#utility.yul\":12487:12509   */\n      add\n        /* \"#utility.yul\":12481:12485   */\n      dup9\n        /* \"#utility.yul\":12474:12510   */\n      sstore\n        /* \"#utility.yul\":11909:12520   */\n      pop\n      pop\n      pop\n        /* \"#utility.yul\":11872:12759   */\n    tag_217:\n      pop\n        /* \"#utility.yul\":11462:12765   */\n      pop\n      pop\n      pop\n        /* \"#utility.yul\":11370:12765   */\n      pop\n      pop\n      jump\t// out\n\n    auxdata: 0xa2646970667358221220de3a774da95ae58c5e63b9e37994b17d9717a299bca2c77fe8b86981feee731764736f6c63430008190033\n}\n",
				"bytecode": {
					"linkReferences": {},
					"object": "6080604052348015600e575f80fd5b50610b378061001c5f395ff3fe608060405260043610610033575f3560e01c806327e235e3146100375780632b66d72e14610073578063977a767c1461008f575b5f80fd5b348015610042575f80fd5b5061005d6004803603810190610058919061047f565b6100cb565b60405161006a91906104c2565b60405180910390f35b61008d60048036038101906100889190610617565b6100e4565b005b34801561009a575f80fd5b506100b560048036038101906100b09190610688565b610278565b6040516100c291906107a4565b60405180910390f35b5f602052805f5260405f205f91509050805f0154905081565b5f805f3373ffffffffffffffffffffffffffffffffffffffff1673ffffffffffffffffffffffffffffffffffffffff1681526020019081526020015f205f015490505f803373ffffffffffffffffffffffffffffffffffffffff1673ffffffffffffffffffffffffffffffffffffffff1681526020019081526020015f205f015f815480929190610174906107f1565b91905055505f60405180608001604052803481526020014281526020013373ffffffffffffffffffffffffffffffffffffffff168152602001848152509050805f803373ffffffffffffffffffffffffffffffffffffffff1673ffffffffffffffffffffffffffffffffffffffff1681526020019081526020015f206001015f8481526020019081526020015f205f820151815f0155602082015181600101556040820151816002015f6101000a81548173ffffffffffffffffffffffffffffffffffffffff021916908373ffffffffffffffffffffffffffffffffffffffff160217905550606082015181600301908161026f9190610a32565b50905050505050565b6102806103d9565b5f808473ffffffffffffffffffffffffffffffffffffffff1673ffffffffffffffffffffffffffffffffffffffff1681526020019081526020015f206001015f8381526020019081526020015f206040518060800160405290815f820154815260200160018201548152602001600282015f9054906101000a900473ffffffffffffffffffffffffffffffffffffffff1673ffffffffffffffffffffffffffffffffffffffff1673ffffffffffffffffffffffffffffffffffffffff16815260200160038201805461035190610865565b80601f016020809104026020016040519081016040528092919081815260200182805461037d90610865565b80156103c85780601f1061039f576101008083540402835291602001916103c8565b820191905f5260205f20905b8154815290600101906020018083116103ab57829003601f168201915b505050505081525050905092915050565b60405180608001604052805f81526020015f81526020015f73ffffffffffffffffffffffffffffffffffffffff168152602001606081525090565b5f604051905090565b5f80fd5b5f80fd5b5f73ffffffffffffffffffffffffffffffffffffffff82169050919050565b5f61044e82610425565b9050919050565b61045e81610444565b8114610468575f80fd5b50565b5f8135905061047981610455565b92915050565b5f602082840312156104945761049361041d565b5b5f6104a18482850161046b565b91505092915050565b5f819050919050565b6104bc816104aa565b82525050565b5f6020820190506104d55f8301846104b3565b92915050565b5f80fd5b5f80fd5b5f601f19601f8301169050919050565b7f4e487b71000000000000000000000000000000000000000000000000000000005f52604160045260245ffd5b610529826104e3565b810181811067ffffffffffffffff82111715610548576105476104f3565b5b80604052505050565b5f61055a610414565b90506105668282610520565b919050565b5f67ffffffffffffffff821115610585576105846104f3565b5b61058e826104e3565b9050602081019050919050565b828183375f83830152505050565b5f6105bb6105b68461056b565b610551565b9050828152602081018484840111156105d7576105d66104df565b5b6105e284828561059b565b509392505050565b5f82601f8301126105fe576105fd6104db565b5b813561060e8482602086016105a9565b91505092915050565b5f6020828403121561062c5761062b61041d565b5b5f82013567ffffffffffffffff81111561064957610648610421565b5b610655848285016105ea565b91505092915050565b610667816104aa565b8114610671575f80fd5b50565b5f813590506106828161065e565b92915050565b5f806040838503121561069e5761069d61041d565b5b5f6106ab8582860161046b565b92505060206106bc85828601610674565b9150509250929050565b6106cf816104aa565b82525050565b6106de81610444565b82525050565b5f81519050919050565b5f82825260208201905092915050565b8281835e5f83830152505050565b5f610716826106e4565b61072081856106ee565b93506107308185602086016106fe565b610739816104e3565b840191505092915050565b5f608083015f8301516107595f8601826106c6565b50602083015161076c60208601826106c6565b50604083015161077f60408601826106d5565b5060608301518482036060860152610797828261070c565b9150508091505092915050565b5f6020820190508181035f8301526107bc8184610744565b905092915050565b7f4e487b71000000000000000000000000000000000000000000000000000000005f52601160045260245ffd5b5f6107fb826104aa565b91507fffffffffffffffffffffffffffffffffffffffffffffffffffffffffffffffff820361082d5761082c6107c4565b5b600182019050919050565b7f4e487b71000000000000000000000000000000000000000000000000000000005f52602260045260245ffd5b5f600282049050600182168061087c57607f821691505b60208210810361088f5761088e610838565b5b50919050565b5f819050815f5260205f209050919050565b5f6020601f8301049050919050565b5f82821b905092915050565b5f600883026108f17fffffffffffffffffffffffffffffffffffffffffffffffffffffffffffffffff826108b6565b6108fb86836108b6565b95508019841693508086168417925050509392505050565b5f819050919050565b5f61093661093161092c846104aa565b610913565b6104aa565b9050919050565b5f819050919050565b61094f8361091c565b61096361095b8261093d565b8484546108c2565b825550505050565b5f90565b61097761096b565b610982818484610946565b505050565b5b818110156109a55761099a5f8261096f565b600181019050610988565b5050565b601f8211156109ea576109bb81610895565b6109c4846108a7565b810160208510156109d3578190505b6109e76109df856108a7565b830182610987565b50505b505050565b5f82821c905092915050565b5f610a0a5f19846008026109ef565b1980831691505092915050565b5f610a2283836109fb565b9150826002028217905092915050565b610a3b826106e4565b67ffffffffffffffff811115610a5457610a536104f3565b5b610a5e8254610865565b610a698282856109a9565b5f60209050601f831160018114610a9a575f8415610a88578287015190505b610a928582610a17565b865550610af9565b601f198416610aa886610895565b5f5b82811015610acf57848901518255600182019150602085019450602081019050610aaa565b86831015610aec5784890151610ae8601f8916826109fb565b8355505b6001600288020188555050505b50505050505056fea2646970667358221220de3a774da95ae58c5e63b9e37994b17d9717a299bca2c77fe8b86981feee731764736f6c63430008190033",
					"opcodes": "PUSH1 0x80 PUSH1 0x40 MSTORE CALLVALUE DUP1 ISZERO PUSH1 0xE JUMPI PUSH0 DUP1 REVERT JUMPDEST POP PUSH2 0xB37 DUP1 PUSH2 0x1C PUSH0 CODECOPY PUSH0 RETURN INVALID PUSH1 0x80 PUSH1 0x40 MSTORE PUSH1 0x4 CALLDATASIZE LT PUSH2 0x33 JUMPI PUSH0 CALLDATALOAD PUSH1 0xE0 SHR DUP1 PUSH4 0x27E235E3 EQ PUSH2 0x37 JUMPI DUP1 PUSH4 0x2B66D72E EQ PUSH2 0x73 JUMPI DUP1 PUSH4 0x977A767C EQ PUSH2 0x8F JUMPI JUMPDEST PUSH0 DUP1 REVERT JUMPDEST CALLVALUE DUP1 ISZERO PUSH2 0x42 JUMPI PUSH0 DUP1 REVERT JUMPDEST POP PUSH2 0x5D PUSH1 0x4 DUP1 CALLDATASIZE SUB DUP2 ADD SWAP1 PUSH2 0x58 SWAP2 SWAP1 PUSH2 0x47F JUMP JUMPDEST PUSH2 0xCB JUMP JUMPDEST PUSH1 0x40 MLOAD PUSH2 0x6A SWAP2 SWAP1 PUSH2 0x4C2 JUMP JUMPDEST PUSH1 0x40 MLOAD DUP1 SWAP2 SUB SWAP1 RETURN JUMPDEST PUSH2 0x8D PUSH1 0x4 DUP1 CALLDATASIZE SUB DUP2 ADD SWAP1 PUSH2 0x88 SWAP2 SWAP1 PUSH2 0x617 JUMP JUMPDEST PUSH2 0xE4 JUMP JUMPDEST STOP JUMPDEST CALLVALUE DUP1 ISZERO PUSH2 0x9A JUMPI PUSH0 DUP1 REVERT JUMPDEST POP PUSH2 0xB5 PUSH1 0x4 DUP1 CALLDATASIZE SUB DUP2 ADD SWAP1 PUSH2 0xB0 SWAP2 SWAP1 PUSH2 0x688 JUMP JUMPDEST PUSH2 0x278 JUMP JUMPDEST PUSH1 0x40 MLOAD PUSH2 0xC2 SWAP2 SWAP1 PUSH2 0x7A4 JUMP JUMPDEST PUSH1 0x40 MLOAD DUP1 SWAP2 SUB SWAP1 RETURN JUMPDEST PUSH0 PUSH1 0x20 MSTORE DUP1 PUSH0 MSTORE PUSH1 0x40 PUSH0 KECCAK256 PUSH0 SWAP2 POP SWAP1 POP DUP1 PUSH0 ADD SLOAD SWAP1 POP DUP2 JUMP JUMPDEST PUSH0 DUP1 PUSH0 CALLER PUSH20 0xFFFFFFFFFFFFFFFFFFFFFFFFFFFFFFFFFFFFFFFF AND PUSH20 0xFFFFFFFFFFFFFFFFFFFFFFFFFFFFFFFFFFFFFFFF AND DUP2 MSTORE PUSH1 0x20 ADD SWAP1 DUP2 MSTORE PUSH1 0x20 ADD PUSH0 KECCAK256 PUSH0 ADD SLOAD SWAP1 POP PUSH0 DUP1 CALLER PUSH20 0xFFFFFFFFFFFFFFFFFFFFFFFFFFFFFFFFFFFFFFFF AND PUSH20 0xFFFFFFFFFFFFFFFFFFFFFFFFFFFFFFFFFFFFFFFF AND DUP2 MSTORE PUSH1 0x20 ADD SWAP1 DUP2 MSTORE PUSH1 0x20 ADD PUSH0 KECCAK256 PUSH0 ADD PUSH0 DUP2 SLOAD DUP1 SWAP3 SWAP2 SWAP1 PUSH2 0x174 SWAP1 PUSH2 0x7F1 JUMP JUMPDEST SWAP2 SWAP1 POP SSTORE POP PUSH0 PUSH1 0x40 MLOAD DUP1 PUSH1 0x80 ADD PUSH1 0x40 MSTORE DUP1 CALLVALUE DUP2 MSTORE PUSH1 0x20 ADD TIMESTAMP DUP2 MSTORE PUSH1 0x20 ADD CALLER PUSH20 0xFFFFFFFFFFFFFFFFFFFFFFFFFFFFFFFFFFFFFFFF AND DUP2 MSTORE PUSH1 0x20 ADD DUP5 DUP2 MSTORE POP SWAP1 POP DUP1 PUSH0 DUP1 CALLER PUSH20 0xFFFFFFFFFFFFFFFFFFFFFFFFFFFFFFFFFFFFFFFF AND PUSH20 0xFFFFFFFFFFFFFFFFFFFFFFFFFFFFFFFFFFFFFFFF AND DUP2 MSTORE PUSH1 0x20 ADD SWAP1 DUP2 MSTORE PUSH1 0x20 ADD PUSH0 KECCAK256 PUSH1 0x1 ADD PUSH0 DUP5 DUP2 MSTORE PUSH1 0x20 ADD SWAP1 DUP2 MSTORE PUSH1 0x20 ADD PUSH0 KECCAK256 PUSH0 DUP3 ADD MLOAD DUP2 PUSH0 ADD SSTORE PUSH1 0x20 DUP3 ADD MLOAD DUP2 PUSH1 0x1 ADD SSTORE PUSH1 0x40 DUP3 ADD MLOAD DUP2 PUSH1 0x2 ADD PUSH0 PUSH2 0x100 EXP DUP2 SLOAD DUP2 PUSH20 0xFFFFFFFFFFFFFFFFFFFFFFFFFFFFFFFFFFFFFFFF MUL NOT AND SWAP1 DUP4 PUSH20 0xFFFFFFFFFFFFFFFFFFFFFFFFFFFFFFFFFFFFFFFF AND MUL OR SWAP1 SSTORE POP PUSH1 0x60 DUP3 ADD MLOAD DUP2 PUSH1 0x3 ADD SWAP1 DUP2 PUSH2 0x26F SWAP2 SWAP1 PUSH2 0xA32 JUMP JUMPDEST POP SWAP1 POP POP POP POP POP JUMP JUMPDEST PUSH2 0x280 PUSH2 0x3D9 JUMP JUMPDEST PUSH0 DUP1 DUP5 PUSH20 0xFFFFFFFFFFFFFFFFFFFFFFFFFFFFFFFFFFFFFFFF AND PUSH20 0xFFFFFFFFFFFFFFFFFFFFFFFFFFFFFFFFFFFFFFFF AND DUP2 MSTORE PUSH1 0x20 ADD SWAP1 DUP2 MSTORE PUSH1 0x20 ADD PUSH0 KECCAK256 PUSH1 0x1 ADD PUSH0 DUP4 DUP2 MSTORE PUSH1 0x20 ADD SWAP1 DUP2 MSTORE PUSH1 0x20 ADD PUSH0 KECCAK256 PUSH1 0x40 MLOAD DUP1 PUSH1 0x80 ADD PUSH1 0x40 MSTORE SWAP1 DUP2 PUSH0 DUP3 ADD SLOAD DUP2 MSTORE PUSH1 0x20 ADD PUSH1 0x1 DUP3 ADD SLOAD DUP2 MSTORE PUSH1 0x20 ADD PUSH1 0x2 DUP3 ADD PUSH0 SWAP1 SLOAD SWAP1 PUSH2 0x100 EXP SWAP1 DIV PUSH20 0xFFFFFFFFFFFFFFFFFFFFFFFFFFFFFFFFFFFFFFFF AND PUSH20 0xFFFFFFFFFFFFFFFFFFFFFFFFFFFFFFFFFFFFFFFF AND PUSH20 0xFFFFFFFFFFFFFFFFFFFFFFFFFFFFFFFFFFFFFFFF AND DUP2 MSTORE PUSH1 0x20 ADD PUSH1 0x3 DUP3 ADD DUP1 SLOAD PUSH2 0x351 SWAP1 PUSH2 0x865 JUMP JUMPDEST DUP1 PUSH1 0x1F ADD PUSH1 0x20 DUP1 SWAP2 DIV MUL PUSH1 0x20 ADD PUSH1 0x40 MLOAD SWAP1 DUP2 ADD PUSH1 0x40 MSTORE DUP1 SWAP3 SWAP2 SWAP1 DUP2 DUP2 MSTORE PUSH1 0x20 ADD DUP3 DUP1 SLOAD PUSH2 0x37D SWAP1 PUSH2 0x865 JUMP JUMPDEST DUP1 ISZERO PUSH2 0x3C8 JUMPI DUP1 PUSH1 0x1F LT PUSH2 0x39F JUMPI PUSH2 0x100 DUP1 DUP4 SLOAD DIV MUL DUP4 MSTORE SWAP2 PUSH1 0x20 ADD SWAP2 PUSH2 0x3C8 JUMP JUMPDEST DUP3 ADD SWAP2 SWAP1 PUSH0 MSTORE PUSH1 0x20 PUSH0 KECCAK256 SWAP1 JUMPDEST DUP2 SLOAD DUP2 MSTORE SWAP1 PUSH1 0x1 ADD SWAP1 PUSH1 0x20 ADD DUP1 DUP4 GT PUSH2 0x3AB JUMPI DUP3 SWAP1 SUB PUSH1 0x1F AND DUP3 ADD SWAP2 JUMPDEST POP POP POP POP POP DUP2 MSTORE POP POP SWAP1 POP SWAP3 SWAP2 POP POP JUMP JUMPDEST PUSH1 0x40 MLOAD DUP1 PUSH1 0x80 ADD PUSH1 0x40 MSTORE DUP1 PUSH0 DUP2 MSTORE PUSH1 0x20 ADD PUSH0 DUP2 MSTORE PUSH1 0x20 ADD PUSH0 PUSH20 0xFFFFFFFFFFFFFFFFFFFFFFFFFFFFFFFFFFFFFFFF AND DUP2 MSTORE PUSH1 0x20 ADD PUSH1 0x60 DUP2 MSTORE POP SWAP1 JUMP JUMPDEST PUSH0 PUSH1 0x40 MLOAD SWAP1 POP SWAP1 JUMP JUMPDEST PUSH0 DUP1 REVERT JUMPDEST PUSH0 DUP1 REVERT JUMPDEST PUSH0 PUSH20 0xFFFFFFFFFFFFFFFFFFFFFFFFFFFFFFFFFFFFFFFF DUP3 AND SWAP1 POP SWAP2 SWAP1 POP JUMP JUMPDEST PUSH0 PUSH2 0x44E DUP3 PUSH2 0x425 JUMP JUMPDEST SWAP1 POP SWAP2 SWAP1 POP JUMP JUMPDEST PUSH2 0x45E DUP2 PUSH2 0x444 JUMP JUMPDEST DUP2 EQ PUSH2 0x468 JUMPI PUSH0 DUP1 REVERT JUMPDEST POP JUMP JUMPDEST PUSH0 DUP2 CALLDATALOAD SWAP1 POP PUSH2 0x479 DUP2 PUSH2 0x455 JUMP JUMPDEST SWAP3 SWAP2 POP POP JUMP JUMPDEST PUSH0 PUSH1 0x20 DUP3 DUP5 SUB SLT ISZERO PUSH2 0x494 JUMPI PUSH2 0x493 PUSH2 0x41D JUMP JUMPDEST JUMPDEST PUSH0 PUSH2 0x4A1 DUP5 DUP3 DUP6 ADD PUSH2 0x46B JUMP JUMPDEST SWAP2 POP POP SWAP3 SWAP2 POP POP JUMP JUMPDEST PUSH0 DUP2 SWAP1 POP SWAP2 SWAP1 POP JUMP JUMPDEST PUSH2 0x4BC DUP2 PUSH2 0x4AA JUMP JUMPDEST DUP3 MSTORE POP POP JUMP JUMPDEST PUSH0 PUSH1 0x20 DUP3 ADD SWAP1 POP PUSH2 0x4D5 PUSH0 DUP4 ADD DUP5 PUSH2 0x4B3 JUMP JUMPDEST SWAP3 SWAP2 POP POP JUMP JUMPDEST PUSH0 DUP1 REVERT JUMPDEST PUSH0 DUP1 REVERT JUMPDEST PUSH0 PUSH1 0x1F NOT PUSH1 0x1F DUP4 ADD AND SWAP1 POP SWAP2 SWAP1 POP JUMP JUMPDEST PUSH32 0x4E487B7100000000000000000000000000000000000000000000000000000000 PUSH0 MSTORE PUSH1 0x41 PUSH1 0x4 MSTORE PUSH1 0x24 PUSH0 REVERT JUMPDEST PUSH2 0x529 DUP3 PUSH2 0x4E3 JUMP JUMPDEST DUP2 ADD DUP2 DUP2 LT PUSH8 0xFFFFFFFFFFFFFFFF DUP3 GT OR ISZERO PUSH2 0x548 JUMPI PUSH2 0x547 PUSH2 0x4F3 JUMP JUMPDEST JUMPDEST DUP1 PUSH1 0x40 MSTORE POP POP POP JUMP JUMPDEST PUSH0 PUSH2 0x55A PUSH2 0x414 JUMP JUMPDEST SWAP1 POP PUSH2 0x566 DUP3 DUP3 PUSH2 0x520 JUMP JUMPDEST SWAP2 SWAP1 POP JUMP JUMPDEST PUSH0 PUSH8 0xFFFFFFFFFFFFFFFF DUP3 GT ISZERO PUSH2 0x585 JUMPI PUSH2 0x584 PUSH2 0x4F3 JUMP JUMPDEST JUMPDEST PUSH2 0x58E DUP3 PUSH2 0x4E3 JUMP JUMPDEST SWAP1 POP PUSH1 0x20 DUP2 ADD SWAP1 POP SWAP2 SWAP1 POP JUMP JUMPDEST DUP3 DUP2 DUP4 CALLDATACOPY PUSH0 DUP4 DUP4 ADD MSTORE POP POP POP JUMP JUMPDEST PUSH0 PUSH2 0x5BB PUSH2 0x5B6 DUP5 PUSH2 0x56B JUMP JUMPDEST PUSH2 0x551 JUMP JUMPDEST SWAP1 POP DUP3 DUP2 MSTORE PUSH1 0x20 DUP2 ADD DUP5 DUP5 DUP5 ADD GT ISZERO PUSH2 0x5D7 JUMPI PUSH2 0x5D6 PUSH2 0x4DF JUMP JUMPDEST JUMPDEST PUSH2 0x5E2 DUP5 DUP3 DUP6 PUSH2 0x59B JUMP JUMPDEST POP SWAP4 SWAP3 POP POP POP JUMP JUMPDEST PUSH0 DUP3 PUSH1 0x1F DUP4 ADD SLT PUSH2 0x5FE JUMPI PUSH2 0x5FD PUSH2 0x4DB JUMP JUMPDEST JUMPDEST DUP2 CALLDATALOAD PUSH2 0x60E DUP5 DUP3 PUSH1 0x20 DUP7 ADD PUSH2 0x5A9 JUMP JUMPDEST SWAP2 POP POP SWAP3 SWAP2 POP POP JUMP JUMPDEST PUSH0 PUSH1 0x20 DUP3 DUP5 SUB SLT ISZERO PUSH2 0x62C JUMPI PUSH2 0x62B PUSH2 0x41D JUMP JUMPDEST JUMPDEST PUSH0 DUP3 ADD CALLDATALOAD PUSH8 0xFFFFFFFFFFFFFFFF DUP2 GT ISZERO PUSH2 0x649 JUMPI PUSH2 0x648 PUSH2 0x421 JUMP JUMPDEST JUMPDEST PUSH2 0x655 DUP5 DUP3 DUP6 ADD PUSH2 0x5EA JUMP JUMPDEST SWAP2 POP POP SWAP3 SWAP2 POP POP JUMP JUMPDEST PUSH2 0x667 DUP2 PUSH2 0x4AA JUMP JUMPDEST DUP2 EQ PUSH2 0x671 JUMPI PUSH0 DUP1 REVERT JUMPDEST POP JUMP JUMPDEST PUSH0 DUP2 CALLDATALOAD SWAP1 POP PUSH2 0x682 DUP2 PUSH2 0x65E JUMP JUMPDEST SWAP3 SWAP2 POP POP JUMP JUMPDEST PUSH0 DUP1 PUSH1 0x40 DUP4 DUP6 SUB SLT ISZERO PUSH2 0x69E JUMPI PUSH2 0x69D PUSH2 0x41D JUMP JUMPDEST JUMPDEST PUSH0 PUSH2 0x6AB DUP6 DUP3 DUP7 ADD PUSH2 0x46B JUMP JUMPDEST SWAP3 POP POP PUSH1 0x20 PUSH2 0x6BC DUP6 DUP3 DUP7 ADD PUSH2 0x674 JUMP JUMPDEST SWAP2 POP POP SWAP3 POP SWAP3 SWAP1 POP JUMP JUMPDEST PUSH2 0x6CF DUP2 PUSH2 0x4AA JUMP JUMPDEST DUP3 MSTORE POP POP JUMP JUMPDEST PUSH2 0x6DE DUP2 PUSH2 0x444 JUMP JUMPDEST DUP3 MSTORE POP POP JUMP JUMPDEST PUSH0 DUP2 MLOAD SWAP1 POP SWAP2 SWAP1 POP JUMP JUMPDEST PUSH0 DUP3 DUP3 MSTORE PUSH1 0x20 DUP3 ADD SWAP1 POP SWAP3 SWAP2 POP POP JUMP JUMPDEST DUP3 DUP2 DUP4 MCOPY PUSH0 DUP4 DUP4 ADD MSTORE POP POP POP JUMP JUMPDEST PUSH0 PUSH2 0x716 DUP3 PUSH2 0x6E4 JUMP JUMPDEST PUSH2 0x720 DUP2 DUP6 PUSH2 0x6EE JUMP JUMPDEST SWAP4 POP PUSH2 0x730 DUP2 DUP6 PUSH1 0x20 DUP7 ADD PUSH2 0x6FE JUMP JUMPDEST PUSH2 0x739 DUP2 PUSH2 0x4E3 JUMP JUMPDEST DUP5 ADD SWAP2 POP POP SWAP3 SWAP2 POP POP JUMP JUMPDEST PUSH0 PUSH1 0x80 DUP4 ADD PUSH0 DUP4 ADD MLOAD PUSH2 0x759 PUSH0 DUP7 ADD DUP3 PUSH2 0x6C6 JUMP JUMPDEST POP PUSH1 0x20 DUP4 ADD MLOAD PUSH2 0x76C PUSH1 0x20 DUP7 ADD DUP3 PUSH2 0x6C6 JUMP JUMPDEST POP PUSH1 0x40 DUP4 ADD MLOAD PUSH2 0x77F PUSH1 0x40 DUP7 ADD DUP3 PUSH2 0x6D5 JUMP JUMPDEST POP PUSH1 0x60 DUP4 ADD MLOAD DUP5 DUP3 SUB PUSH1 0x60 DUP7 ADD MSTORE PUSH2 0x797 DUP3 DUP3 PUSH2 0x70C JUMP JUMPDEST SWAP2 POP POP DUP1 SWAP2 POP POP SWAP3 SWAP2 POP POP JUMP JUMPDEST PUSH0 PUSH1 0x20 DUP3 ADD SWAP1 POP DUP2 DUP2 SUB PUSH0 DUP4 ADD MSTORE PUSH2 0x7BC DUP2 DUP5 PUSH2 0x744 JUMP JUMPDEST SWAP1 POP SWAP3 SWAP2 POP POP JUMP JUMPDEST PUSH32 0x4E487B7100000000000000000000000000000000000000000000000000000000 PUSH0 MSTORE PUSH1 0x11 PUSH1 0x4 MSTORE PUSH1 0x24 PUSH0 REVERT JUMPDEST PUSH0 PUSH2 0x7FB DUP3 PUSH2 0x4AA JUMP JUMPDEST SWAP2 POP PUSH32 0xFFFFFFFFFFFFFFFFFFFFFFFFFFFFFFFFFFFFFFFFFFFFFFFFFFFFFFFFFFFFFFFF DUP3 SUB PUSH2 0x82D JUMPI PUSH2 0x82C PUSH2 0x7C4 JUMP JUMPDEST JUMPDEST PUSH1 0x1 DUP3 ADD SWAP1 POP SWAP2 SWAP1 POP JUMP JUMPDEST PUSH32 0x4E487B7100000000000000000000000000000000000000000000000000000000 PUSH0 MSTORE PUSH1 0x22 PUSH1 0x4 MSTORE PUSH1 0x24 PUSH0 REVERT JUMPDEST PUSH0 PUSH1 0x2 DUP3 DIV SWAP1 POP PUSH1 0x1 DUP3 AND DUP1 PUSH2 0x87C JUMPI PUSH1 0x7F DUP3 AND SWAP2 POP JUMPDEST PUSH1 0x20 DUP3 LT DUP2 SUB PUSH2 0x88F JUMPI PUSH2 0x88E PUSH2 0x838 JUMP JUMPDEST JUMPDEST POP SWAP2 SWAP1 POP JUMP JUMPDEST PUSH0 DUP2 SWAP1 POP DUP2 PUSH0 MSTORE PUSH1 0x20 PUSH0 KECCAK256 SWAP1 POP SWAP2 SWAP1 POP JUMP JUMPDEST PUSH0 PUSH1 0x20 PUSH1 0x1F DUP4 ADD DIV SWAP1 POP SWAP2 SWAP1 POP JUMP JUMPDEST PUSH0 DUP3 DUP3 SHL SWAP1 POP SWAP3 SWAP2 POP POP JUMP JUMPDEST PUSH0 PUSH1 0x8 DUP4 MUL PUSH2 0x8F1 PUSH32 0xFFFFFFFFFFFFFFFFFFFFFFFFFFFFFFFFFFFFFFFFFFFFFFFFFFFFFFFFFFFFFFFF DUP3 PUSH2 0x8B6 JUMP JUMPDEST PUSH2 0x8FB DUP7 DUP4 PUSH2 0x8B6 JUMP JUMPDEST SWAP6 POP DUP1 NOT DUP5 AND SWAP4 POP DUP1 DUP7 AND DUP5 OR SWAP3 POP POP POP SWAP4 SWAP3 POP POP POP JUMP JUMPDEST PUSH0 DUP2 SWAP1 POP SWAP2 SWAP1 POP JUMP JUMPDEST PUSH0 PUSH2 0x936 PUSH2 0x931 PUSH2 0x92C DUP5 PUSH2 0x4AA JUMP JUMPDEST PUSH2 0x913 JUMP JUMPDEST PUSH2 0x4AA JUMP JUMPDEST SWAP1 POP SWAP2 SWAP1 POP JUMP JUMPDEST PUSH0 DUP2 SWAP1 POP SWAP2 SWAP1 POP JUMP JUMPDEST PUSH2 0x94F DUP4 PUSH2 0x91C JUMP JUMPDEST PUSH2 0x963 PUSH2 0x95B DUP3 PUSH2 0x93D JUMP JUMPDEST DUP5 DUP5 SLOAD PUSH2 0x8C2 JUMP JUMPDEST DUP3 SSTORE POP POP POP POP JUMP JUMPDEST PUSH0 SWAP1 JUMP JUMPDEST PUSH2 0x977 PUSH2 0x96B JUMP JUMPDEST PUSH2 0x982 DUP2 DUP5 DUP5 PUSH2 0x946 JUMP JUMPDEST POP POP POP JUMP JUMPDEST JUMPDEST DUP2 DUP2 LT ISZERO PUSH2 0x9A5 JUMPI PUSH2 0x99A PUSH0 DUP3 PUSH2 0x96F JUMP JUMPDEST PUSH1 0x1 DUP2 ADD SWAP1 POP PUSH2 0x988 JUMP JUMPDEST POP POP JUMP JUMPDEST PUSH1 0x1F DUP3 GT ISZERO PUSH2 0x9EA JUMPI PUSH2 0x9BB DUP2 PUSH2 0x895 JUMP JUMPDEST PUSH2 0x9C4 DUP5 PUSH2 0x8A7 JUMP JUMPDEST DUP2 ADD PUSH1 0x20 DUP6 LT ISZERO PUSH2 0x9D3 JUMPI DUP2 SWAP1 POP JUMPDEST PUSH2 0x9E7 PUSH2 0x9DF DUP6 PUSH2 0x8A7 JUMP JUMPDEST DUP4 ADD DUP3 PUSH2 0x987 JUMP JUMPDEST POP POP JUMPDEST POP POP POP JUMP JUMPDEST PUSH0 DUP3 DUP3 SHR SWAP1 POP SWAP3 SWAP2 POP POP JUMP JUMPDEST PUSH0 PUSH2 0xA0A PUSH0 NOT DUP5 PUSH1 0x8 MUL PUSH2 0x9EF JUMP JUMPDEST NOT DUP1 DUP4 AND SWAP2 POP POP SWAP3 SWAP2 POP POP JUMP JUMPDEST PUSH0 PUSH2 0xA22 DUP4 DUP4 PUSH2 0x9FB JUMP JUMPDEST SWAP2 POP DUP3 PUSH1 0x2 MUL DUP3 OR SWAP1 POP SWAP3 SWAP2 POP POP JUMP JUMPDEST PUSH2 0xA3B DUP3 PUSH2 0x6E4 JUMP JUMPDEST PUSH8 0xFFFFFFFFFFFFFFFF DUP2 GT ISZERO PUSH2 0xA54 JUMPI PUSH2 0xA53 PUSH2 0x4F3 JUMP JUMPDEST JUMPDEST PUSH2 0xA5E DUP3 SLOAD PUSH2 0x865 JUMP JUMPDEST PUSH2 0xA69 DUP3 DUP3 DUP6 PUSH2 0x9A9 JUMP JUMPDEST PUSH0 PUSH1 0x20 SWAP1 POP PUSH1 0x1F DUP4 GT PUSH1 0x1 DUP2 EQ PUSH2 0xA9A JUMPI PUSH0 DUP5 ISZERO PUSH2 0xA88 JUMPI DUP3 DUP8 ADD MLOAD SWAP1 POP JUMPDEST PUSH2 0xA92 DUP6 DUP3 PUSH2 0xA17 JUMP JUMPDEST DUP7 SSTORE POP PUSH2 0xAF9 JUMP JUMPDEST PUSH1 0x1F NOT DUP5 AND PUSH2 0xAA8 DUP7 PUSH2 0x895 JUMP JUMPDEST PUSH0 JUMPDEST DUP3 DUP2 LT ISZERO PUSH2 0xACF JUMPI DUP5 DUP10 ADD MLOAD DUP3 SSTORE PUSH1 0x1 DUP3 ADD SWAP2 POP PUSH1 0x20 DUP6 ADD SWAP5 POP PUSH1 0x20 DUP2 ADD SWAP1 POP PUSH2 0xAAA JUMP JUMPDEST DUP7 DUP4 LT ISZERO PUSH2 0xAEC JUMPI DUP5 DUP10 ADD MLOAD PUSH2 0xAE8 PUSH1 0x1F DUP10 AND DUP3 PUSH2 0x9FB JUMP JUMPDEST DUP4 SSTORE POP JUMPDEST PUSH1 0x1 PUSH1 0x2 DUP9 MUL ADD DUP9 SSTORE POP POP POP JUMPDEST POP POP POP POP POP POP JUMP INVALID LOG2 PUSH5 0x6970667358 0x22 SLT KECCAK256 0xDE GASPRICE PUSH24 0x4DA95AE58C5E63B9E37994B17D9717A299BCA2C77FE8B869 DUP2 INVALID 0xEE PUSH20 0x1764736F6C634300081900330000000000000000 "
				},
				"gasEstimates": {
					"creation": {
						"codeDepositCost": "574200",
						"executionCost": "604",
						"totalCost": "574804"
					},
					"external": {
						"balances(address)": "2792",
						"getPayment(address,uint256)": "infinite",
						"pay(string)": "infinite"
					}
				},
				"methodIdentifiers": {
					"balances(address)": "27e235e3",
					"getPayment(address,uint256)": "977a767c",
					"pay(string)": "2b66d72e"
				}
			},
			"storageLayout": {
				"storage": [
					{
						"astId": 23,
						"contract": "src/Practise.sol:Demo",
						"label": "balances",
						"offset": 0,
						"slot": "0",
						"type": "t_mapping(t_address,t_struct(Balance)18_storage)"
					}
				],
				"types": {
					"t_address": {
						"encoding": "inplace",
						"label": "address",
						"numberOfBytes": "20"
					},
					"t_mapping(t_address,t_struct(Balance)18_storage)": {
						"encoding": "mapping",
						"key": "t_address",
						"label": "mapping(address => struct Demo.Balance)",
						"numberOfBytes": "32",
						"value": "t_struct(Balance)18_storage"
					},
					"t_mapping(t_uint256,t_struct(Payment)10_storage)": {
						"encoding": "mapping",
						"key": "t_uint256",
						"label": "mapping(uint256 => struct Demo.Payment)",
						"numberOfBytes": "32",
						"value": "t_struct(Payment)10_storage"
					},
					"t_string_storage": {
						"encoding": "bytes",
						"label": "string",
						"numberOfBytes": "32"
					},
					"t_struct(Balance)18_storage": {
						"encoding": "inplace",
						"label": "struct Demo.Balance",
						"members": [
							{
								"astId": 12,
								"contract": "src/Practise.sol:Demo",
								"label": "totalPayments",
								"offset": 0,
								"slot": "0",
								"type": "t_uint256"
							},
							{
								"astId": 17,
								"contract": "src/Practise.sol:Demo",
								"label": "paymants",
								"offset": 0,
								"slot": "1",
								"type": "t_mapping(t_uint256,t_struct(Payment)10_storage)"
							}
						],
						"numberOfBytes": "64"
					},
					"t_struct(Payment)10_storage": {
						"encoding": "inplace",
						"label": "struct Demo.Payment",
						"members": [
							{
								"astId": 3,
								"contract": "src/Practise.sol:Demo",
								"label": "amount",
								"offset": 0,
								"slot": "0",
								"type": "t_uint256"
							},
							{
								"astId": 5,
								"contract": "src/Practise.sol:Demo",
								"label": "timestamp",
								"offset": 0,
								"slot": "1",
								"type": "t_uint256"
							},
							{
								"astId": 7,
								"contract": "src/Practise.sol:Demo",
								"label": "from",
								"offset": 0,
								"slot": "2",
								"type": "t_address"
							},
							{
								"astId": 9,
								"contract": "src/Practise.sol:Demo",
								"label": "message",
								"offset": 0,
								"slot": "3",
								"type": "t_string_storage"
							}
						],
						"numberOfBytes": "128"
					},
					"t_uint256": {
						"encoding": "inplace",
						"label": "uint256",
						"numberOfBytes": "32"
					}
				}
			},
			"userdoc": {
				"kind": "user",
				"methods": {},
				"version": 1
			}
		}
	}
}