{
	"data": {
		"bytecode": {
			"linkReferences": {},
			"object": "608060405273ab8483f64d9c6d1ecf9b849ae677dd3315835cb260015f6101000a81548173ffffffffffffffffffffffffffffffffffffffff021916908373ffffffffffffffffffffffffffffffffffffffff1602179055506040518060400160405280600481526020017f74657374000000000000000000000000000000000000000000000000000000008152506002908161009c91906102e8565b503480156100a8575f80fd5b506103b7565b5f81519050919050565b7f4e487b71000000000000000000000000000000000000000000000000000000005f52604160045260245ffd5b7f4e487b71000000000000000000000000000000000000000000000000000000005f52602260045260245ffd5b5f600282049050600182168061012957607f821691505b60208210810361013c5761013b6100e5565b5b50919050565b5f819050815f5260205f209050919050565b5f6020601f8301049050919050565b5f82821b905092915050565b5f6008830261019e7fffffffffffffffffffffffffffffffffffffffffffffffffffffffffffffffff82610163565b6101a88683610163565b95508019841693508086168417925050509392505050565b5f819050919050565b5f819050919050565b5f6101ec6101e76101e2846101c0565b6101c9565b6101c0565b9050919050565b5f819050919050565b610205836101d2565b610219610211826101f3565b84845461016f565b825550505050565b5f90565b61022d610221565b6102388184846101fc565b505050565b5b8181101561025b576102505f82610225565b60018101905061023e565b5050565b601f8211156102a05761027181610142565b61027a84610154565b81016020851015610289578190505b61029d61029585610154565b83018261023d565b50505b505050565b5f82821c905092915050565b5f6102c05f19846008026102a5565b1980831691505092915050565b5f6102d883836102b1565b9150826002028217905092915050565b6102f1826100ae565b67ffffffffffffffff81111561030a576103096100b8565b5b6103148254610112565b61031f82828561025f565b5f60209050601f831160018114610350575f841561033e578287015190505b61034885826102cd565b8655506103af565b601f19841661035e86610142565b5f5b8281101561038557848901518255600182019150602085019450602081019050610360565b868310156103a2578489015161039e601f8916826102b1565b8355505b6001600288020188555050505b505050505050565b6109b3806103c45f395ff3fe60806040526004361061006e575f3560e01c8063939a79ac1161004d578063939a79ac146100ce578063e2982c21146100f6578063e665b26614610132578063f8b2cb4f1461015c5761006e565b80625c33e1146100725780632ccb1b301461007c5780635a455c1c146100a4575b5f80fd5b61007a610198565b005b348015610087575f80fd5b506100a2600480360381019061009d91906103f8565b6101db565b005b3480156100af575f80fd5b506100b8610228565b6040516100c591906104a6565b60405180910390f35b3480156100d9575f80fd5b506100f460048036038101906100ef91906105f2565b6102b4565b005b348015610101575f80fd5b5061011c60048036038101906101179190610639565b610301565b6040516101299190610673565b60405180910390f35b34801561013d575f80fd5b50610146610315565b604051610153919061069b565b60405180910390f35b348015610167575f80fd5b50610182600480360381019061017d9190610639565b61033a565b60405161018f9190610673565b60405180910390f35b345f803373ffffffffffffffffffffffffffffffffffffffff1673ffffffffffffffffffffffffffffffffffffffff1681526020019081526020015f2081905550565b5f8290508073ffffffffffffffffffffffffffffffffffffffff166108fc8390811502906040515f60405180830381858888f19350505050158015610222573d5f803e3d5ffd5b50505050565b60028054610235906106e1565b80601f0160208091040260200160405190810160405280929190818152602001828054610261906106e1565b80156102ac5780601f10610283576101008083540402835291602001916102ac565b820191905f5260205f20905b81548152906001019060200180831161028f57829003601f168201915b505050505081565b5f6040518060400160405280600481526020017f74656d7000000000000000000000000000000000000000000000000000000000815250905081600290816102fc91906108ae565b505050565b5f602052805f5260405f205f915090505481565b60015f9054906101000a900473ffffffffffffffffffffffffffffffffffffffff1681565b5f8173ffffffffffffffffffffffffffffffffffffffff16319050919050565b5f604051905090565b5f80fd5b5f80fd5b5f73ffffffffffffffffffffffffffffffffffffffff82169050919050565b5f6103948261036b565b9050919050565b6103a48161038a565b81146103ae575f80fd5b50565b5f813590506103bf8161039b565b92915050565b5f819050919050565b6103d7816103c5565b81146103e1575f80fd5b50565b5f813590506103f2816103ce565b92915050565b5f806040838503121561040e5761040d610363565b5b5f61041b858286016103b1565b925050602061042c858286016103e4565b9150509250929050565b5f81519050919050565b5f82825260208201905092915050565b8281835e5f83830152505050565b5f601f19601f8301169050919050565b5f61047882610436565b6104828185610440565b9350610492818560208601610450565b61049b8161045e565b840191505092915050565b5f6020820190508181035f8301526104be818461046e565b905092915050565b5f80fd5b5f80fd5b7f4e487b71000000000000000000000000000000000000000000000000000000005f52604160045260245ffd5b6105048261045e565b810181811067ffffffffffffffff82111715610523576105226104ce565b5b80604052505050565b5f61053561035a565b905061054182826104fb565b919050565b5f67ffffffffffffffff8211156105605761055f6104ce565b5b6105698261045e565b9050602081019050919050565b828183375f83830152505050565b5f61059661059184610546565b61052c565b9050828152602081018484840111156105b2576105b16104ca565b5b6105bd848285610576565b509392505050565b5f82601f8301126105d9576105d86104c6565b5b81356105e9848260208601610584565b91505092915050565b5f6020828403121561060757610606610363565b5b5f82013567ffffffffffffffff81111561062457610623610367565b5b610630848285016105c5565b91505092915050565b5f6020828403121561064e5761064d610363565b5b5f61065b848285016103b1565b91505092915050565b61066d816103c5565b82525050565b5f6020820190506106865f830184610664565b92915050565b6106958161038a565b82525050565b5f6020820190506106ae5f83018461068c565b92915050565b7f4e487b71000000000000000000000000000000000000000000000000000000005f52602260045260245ffd5b5f60028204905060018216806106f857607f821691505b60208210810361070b5761070a6106b4565b5b50919050565b5f819050815f5260205f209050919050565b5f6020601f8301049050919050565b5f82821b905092915050565b5f6008830261076d7fffffffffffffffffffffffffffffffffffffffffffffffffffffffffffffffff82610732565b6107778683610732565b95508019841693508086168417925050509392505050565b5f819050919050565b5f6107b26107ad6107a8846103c5565b61078f565b6103c5565b9050919050565b5f819050919050565b6107cb83610798565b6107df6107d7826107b9565b84845461073e565b825550505050565b5f90565b6107f36107e7565b6107fe8184846107c2565b505050565b5b81811015610821576108165f826107eb565b600181019050610804565b5050565b601f8211156108665761083781610711565b61084084610723565b8101602085101561084f578190505b61086361085b85610723565b830182610803565b50505b505050565b5f82821c905092915050565b5f6108865f198460080261086b565b1980831691505092915050565b5f61089e8383610877565b9150826002028217905092915050565b6108b782610436565b67ffffffffffffffff8111156108d0576108cf6104ce565b5b6108da82546106e1565b6108e5828285610825565b5f60209050601f831160018114610916575f8415610904578287015190505b61090e8582610893565b865550610975565b601f19841661092486610711565b5f5b8281101561094b57848901518255600182019150602085019450602081019050610926565b868310156109685784890151610964601f891682610877565b8355505b6001600288020188555050505b50505050505056fea264697066735822122032db210c74e58820d35d8b542089076663b29438daa6b8eaa4e4544b5e59028264736f6c63430008190033",
			"opcodes": "PUSH1 0x80 PUSH1 0x40 MSTORE PUSH20 0xAB8483F64D9C6D1ECF9B849AE677DD3315835CB2 PUSH1 0x1 PUSH0 PUSH2 0x100 EXP DUP2 SLOAD DUP2 PUSH20 0xFFFFFFFFFFFFFFFFFFFFFFFFFFFFFFFFFFFFFFFF MUL NOT AND SWAP1 DUP4 PUSH20 0xFFFFFFFFFFFFFFFFFFFFFFFFFFFFFFFFFFFFFFFF AND MUL OR SWAP1 SSTORE POP PUSH1 0x40 MLOAD DUP1 PUSH1 0x40 ADD PUSH1 0x40 MSTORE DUP1 PUSH1 0x4 DUP2 MSTORE PUSH1 0x20 ADD PUSH32 0x7465737400000000000000000000000000000000000000000000000000000000 DUP2 MSTORE POP PUSH1 0x2 SWAP1 DUP2 PUSH2 0x9C SWAP2 SWAP1 PUSH2 0x2E8 JUMP JUMPDEST POP CALLVALUE DUP1 ISZERO PUSH2 0xA8 JUMPI PUSH0 DUP1 REVERT JUMPDEST POP PUSH2 0x3B7 JUMP JUMPDEST PUSH0 DUP2 MLOAD SWAP1 POP SWAP2 SWAP1 POP JUMP JUMPDEST PUSH32 0x4E487B7100000000000000000000000000000000000000000000000000000000 PUSH0 MSTORE PUSH1 0x41 PUSH1 0x4 MSTORE PUSH1 0x24 PUSH0 REVERT JUMPDEST PUSH32 0x4E487B7100000000000000000000000000000000000000000000000000000000 PUSH0 MSTORE PUSH1 0x22 PUSH1 0x4 MSTORE PUSH1 0x24 PUSH0 REVERT JUMPDEST PUSH0 PUSH1 0x2 DUP3 DIV SWAP1 POP PUSH1 0x1 DUP3 AND DUP1 PUSH2 0x129 JUMPI PUSH1 0x7F DUP3 AND SWAP2 POP JUMPDEST PUSH1 0x20 DUP3 LT DUP2 SUB PUSH2 0x13C JUMPI PUSH2 0x13B PUSH2 0xE5 JUMP JUMPDEST JUMPDEST POP SWAP2 SWAP1 POP JUMP JUMPDEST PUSH0 DUP2 SWAP1 POP DUP2 PUSH0 MSTORE PUSH1 0x20 PUSH0 KECCAK256 SWAP1 POP SWAP2 SWAP1 POP JUMP JUMPDEST PUSH0 PUSH1 0x20 PUSH1 0x1F DUP4 ADD DIV SWAP1 POP SWAP2 SWAP1 POP JUMP JUMPDEST PUSH0 DUP3 DUP3 SHL SWAP1 POP SWAP3 SWAP2 POP POP JUMP JUMPDEST PUSH0 PUSH1 0x8 DUP4 MUL PUSH2 0x19E PUSH32 0xFFFFFFFFFFFFFFFFFFFFFFFFFFFFFFFFFFFFFFFFFFFFFFFFFFFFFFFFFFFFFFFF DUP3 PUSH2 0x163 JUMP JUMPDEST PUSH2 0x1A8 DUP7 DUP4 PUSH2 0x163 JUMP JUMPDEST SWAP6 POP DUP1 NOT DUP5 AND SWAP4 POP DUP1 DUP7 AND DUP5 OR SWAP3 POP POP POP SWAP4 SWAP3 POP POP POP JUMP JUMPDEST PUSH0 DUP2 SWAP1 POP SWAP2 SWAP1 POP JUMP JUMPDEST PUSH0 DUP2 SWAP1 POP SWAP2 SWAP1 POP JUMP JUMPDEST PUSH0 PUSH2 0x1EC PUSH2 0x1E7 PUSH2 0x1E2 DUP5 PUSH2 0x1C0 JUMP JUMPDEST PUSH2 0x1C9 JUMP JUMPDEST PUSH2 0x1C0 JUMP JUMPDEST SWAP1 POP SWAP2 SWAP1 POP JUMP JUMPDEST PUSH0 DUP2 SWAP1 POP SWAP2 SWAP1 POP JUMP JUMPDEST PUSH2 0x205 DUP4 PUSH2 0x1D2 JUMP JUMPDEST PUSH2 0x219 PUSH2 0x211 DUP3 PUSH2 0x1F3 JUMP JUMPDEST DUP5 DUP5 SLOAD PUSH2 0x16F JUMP JUMPDEST DUP3 SSTORE POP POP POP POP JUMP JUMPDEST PUSH0 SWAP1 JUMP JUMPDEST PUSH2 0x22D PUSH2 0x221 JUMP JUMPDEST PUSH2 0x238 DUP2 DUP5 DUP5 PUSH2 0x1FC JUMP JUMPDEST POP POP POP JUMP JUMPDEST JUMPDEST DUP2 DUP2 LT ISZERO PUSH2 0x25B JUMPI PUSH2 0x250 PUSH0 DUP3 PUSH2 0x225 JUMP JUMPDEST PUSH1 0x1 DUP2 ADD SWAP1 POP PUSH2 0x23E JUMP JUMPDEST POP POP JUMP JUMPDEST PUSH1 0x1F DUP3 GT ISZERO PUSH2 0x2A0 JUMPI PUSH2 0x271 DUP2 PUSH2 0x142 JUMP JUMPDEST PUSH2 0x27A DUP5 PUSH2 0x154 JUMP JUMPDEST DUP2 ADD PUSH1 0x20 DUP6 LT ISZERO PUSH2 0x289 JUMPI DUP2 SWAP1 POP JUMPDEST PUSH2 0x29D PUSH2 0x295 DUP6 PUSH2 0x154 JUMP JUMPDEST DUP4 ADD DUP3 PUSH2 0x23D JUMP JUMPDEST POP POP JUMPDEST POP POP POP JUMP JUMPDEST PUSH0 DUP3 DUP3 SHR SWAP1 POP SWAP3 SWAP2 POP POP JUMP JUMPDEST PUSH0 PUSH2 0x2C0 PUSH0 NOT DUP5 PUSH1 0x8 MUL PUSH2 0x2A5 JUMP JUMPDEST NOT DUP1 DUP4 AND SWAP2 POP POP SWAP3 SWAP2 POP POP JUMP JUMPDEST PUSH0 PUSH2 0x2D8 DUP4 DUP4 PUSH2 0x2B1 JUMP JUMPDEST SWAP2 POP DUP3 PUSH1 0x2 MUL DUP3 OR SWAP1 POP SWAP3 SWAP2 POP POP JUMP JUMPDEST PUSH2 0x2F1 DUP3 PUSH2 0xAE JUMP JUMPDEST PUSH8 0xFFFFFFFFFFFFFFFF DUP2 GT ISZERO PUSH2 0x30A JUMPI PUSH2 0x309 PUSH2 0xB8 JUMP JUMPDEST JUMPDEST PUSH2 0x314 DUP3 SLOAD PUSH2 0x112 JUMP JUMPDEST PUSH2 0x31F DUP3 DUP3 DUP6 PUSH2 0x25F JUMP JUMPDEST PUSH0 PUSH1 0x20 SWAP1 POP PUSH1 0x1F DUP4 GT PUSH1 0x1 DUP2 EQ PUSH2 0x350 JUMPI PUSH0 DUP5 ISZERO PUSH2 0x33E JUMPI DUP3 DUP8 ADD MLOAD SWAP1 POP JUMPDEST PUSH2 0x348 DUP6 DUP3 PUSH2 0x2CD JUMP JUMPDEST DUP7 SSTORE POP PUSH2 0x3AF JUMP JUMPDEST PUSH1 0x1F NOT DUP5 AND PUSH2 0x35E DUP7 PUSH2 0x142 JUMP JUMPDEST PUSH0 JUMPDEST DUP3 DUP2 LT ISZERO PUSH2 0x385 JUMPI DUP5 DUP10 ADD MLOAD DUP3 SSTORE PUSH1 0x1 DUP3 ADD SWAP2 POP PUSH1 0x20 DUP6 ADD SWAP5 POP PUSH1 0x20 DUP2 ADD SWAP1 POP PUSH2 0x360 JUMP JUMPDEST DUP7 DUP4 LT ISZERO PUSH2 0x3A2 JUMPI DUP5 DUP10 ADD MLOAD PUSH2 0x39E PUSH1 0x1F DUP10 AND DUP3 PUSH2 0x2B1 JUMP JUMPDEST DUP4 SSTORE POP JUMPDEST PUSH1 0x1 PUSH1 0x2 DUP9 MUL ADD DUP9 SSTORE POP POP POP JUMPDEST POP POP POP POP POP POP JUMP JUMPDEST PUSH2 0x9B3 DUP1 PUSH2 0x3C4 PUSH0 CODECOPY PUSH0 RETURN INVALID PUSH1 0x80 PUSH1 0x40 MSTORE PUSH1 0x4 CALLDATASIZE LT PUSH2 0x6E JUMPI PUSH0 CALLDATALOAD PUSH1 0xE0 SHR DUP1 PUSH4 0x939A79AC GT PUSH2 0x4D JUMPI DUP1 PUSH4 0x939A79AC EQ PUSH2 0xCE JUMPI DUP1 PUSH4 0xE2982C21 EQ PUSH2 0xF6 JUMPI DUP1 PUSH4 0xE665B266 EQ PUSH2 0x132 JUMPI DUP1 PUSH4 0xF8B2CB4F EQ PUSH2 0x15C JUMPI PUSH2 0x6E JUMP JUMPDEST DUP1 PUSH3 0x5C33E1 EQ PUSH2 0x72 JUMPI DUP1 PUSH4 0x2CCB1B30 EQ PUSH2 0x7C JUMPI DUP1 PUSH4 0x5A455C1C EQ PUSH2 0xA4 JUMPI JUMPDEST PUSH0 DUP1 REVERT JUMPDEST PUSH2 0x7A PUSH2 0x198 JUMP JUMPDEST STOP JUMPDEST CALLVALUE DUP1 ISZERO PUSH2 0x87 JUMPI PUSH0 DUP1 REVERT JUMPDEST POP PUSH2 0xA2 PUSH1 0x4 DUP1 CALLDATASIZE SUB DUP2 ADD SWAP1 PUSH2 0x9D SWAP2 SWAP1 PUSH2 0x3F8 JUMP JUMPDEST PUSH2 0x1DB JUMP JUMPDEST STOP JUMPDEST CALLVALUE DUP1 ISZERO PUSH2 0xAF JUMPI PUSH0 DUP1 REVERT JUMPDEST POP PUSH2 0xB8 PUSH2 0x228 JUMP JUMPDEST PUSH1 0x40 MLOAD PUSH2 0xC5 SWAP2 SWAP1 PUSH2 0x4A6 JUMP JUMPDEST PUSH1 0x40 MLOAD DUP1 SWAP2 SUB SWAP1 RETURN JUMPDEST CALLVALUE DUP1 ISZERO PUSH2 0xD9 JUMPI PUSH0 DUP1 REVERT JUMPDEST POP PUSH2 0xF4 PUSH1 0x4 DUP1 CALLDATASIZE SUB DUP2 ADD SWAP1 PUSH2 0xEF SWAP2 SWAP1 PUSH2 0x5F2 JUMP JUMPDEST PUSH2 0x2B4 JUMP JUMPDEST STOP JUMPDEST CALLVALUE DUP1 ISZERO PUSH2 0x101 JUMPI PUSH0 DUP1 REVERT JUMPDEST POP PUSH2 0x11C PUSH1 0x4 DUP1 CALLDATASIZE SUB DUP2 ADD SWAP1 PUSH2 0x117 SWAP2 SWAP1 PUSH2 0x639 JUMP JUMPDEST PUSH2 0x301 JUMP JUMPDEST PUSH1 0x40 MLOAD PUSH2 0x129 SWAP2 SWAP1 PUSH2 0x673 JUMP JUMPDEST PUSH1 0x40 MLOAD DUP1 SWAP2 SUB SWAP1 RETURN JUMPDEST CALLVALUE DUP1 ISZERO PUSH2 0x13D JUMPI PUSH0 DUP1 REVERT JUMPDEST POP PUSH2 0x146 PUSH2 0x315 JUMP JUMPDEST PUSH1 0x40 MLOAD PUSH2 0x153 SWAP2 SWAP1 PUSH2 0x69B JUMP JUMPDEST PUSH1 0x40 MLOAD DUP1 SWAP2 SUB SWAP1 RETURN JUMPDEST CALLVALUE DUP1 ISZERO PUSH2 0x167 JUMPI PUSH0 DUP1 REVERT JUMPDEST POP PUSH2 0x182 PUSH1 0x4 DUP1 CALLDATASIZE SUB DUP2 ADD SWAP1 PUSH2 0x17D SWAP2 SWAP1 PUSH2 0x639 JUMP JUMPDEST PUSH2 0x33A JUMP JUMPDEST PUSH1 0x40 MLOAD PUSH2 0x18F SWAP2 SWAP1 PUSH2 0x673 JUMP JUMPDEST PUSH1 0x40 MLOAD DUP1 SWAP2 SUB SWAP1 RETURN JUMPDEST CALLVALUE PUSH0 DUP1 CALLER PUSH20 0xFFFFFFFFFFFFFFFFFFFFFFFFFFFFFFFFFFFFFFFF AND PUSH20 0xFFFFFFFFFFFFFFFFFFFFFFFFFFFFFFFFFFFFFFFF AND DUP2 MSTORE PUSH1 0x20 ADD SWAP1 DUP2 MSTORE PUSH1 0x20 ADD PUSH0 KECCAK256 DUP2 SWAP1 SSTORE POP JUMP JUMPDEST PUSH0 DUP3 SWAP1 POP DUP1 PUSH20 0xFFFFFFFFFFFFFFFFFFFFFFFFFFFFFFFFFFFFFFFF AND PUSH2 0x8FC DUP4 SWAP1 DUP2 ISZERO MUL SWAP1 PUSH1 0x40 MLOAD PUSH0 PUSH1 0x40 MLOAD DUP1 DUP4 SUB DUP2 DUP6 DUP9 DUP9 CALL SWAP4 POP POP POP POP ISZERO DUP1 ISZERO PUSH2 0x222 JUMPI RETURNDATASIZE PUSH0 DUP1 RETURNDATACOPY RETURNDATASIZE PUSH0 REVERT JUMPDEST POP POP POP POP JUMP JUMPDEST PUSH1 0x2 DUP1 SLOAD PUSH2 0x235 SWAP1 PUSH2 0x6E1 JUMP JUMPDEST DUP1 PUSH1 0x1F ADD PUSH1 0x20 DUP1 SWAP2 DIV MUL PUSH1 0x20 ADD PUSH1 0x40 MLOAD SWAP1 DUP2 ADD PUSH1 0x40 MSTORE DUP1 SWAP3 SWAP2 SWAP1 DUP2 DUP2 MSTORE PUSH1 0x20 ADD DUP3 DUP1 SLOAD PUSH2 0x261 SWAP1 PUSH2 0x6E1 JUMP JUMPDEST DUP1 ISZERO PUSH2 0x2AC JUMPI DUP1 PUSH1 0x1F LT PUSH2 0x283 JUMPI PUSH2 0x100 DUP1 DUP4 SLOAD DIV MUL DUP4 MSTORE SWAP2 PUSH1 0x20 ADD SWAP2 PUSH2 0x2AC JUMP JUMPDEST DUP3 ADD SWAP2 SWAP1 PUSH0 MSTORE PUSH1 0x20 PUSH0 KECCAK256 SWAP1 JUMPDEST DUP2 SLOAD DUP2 MSTORE SWAP1 PUSH1 0x1 ADD SWAP1 PUSH1 0x20 ADD DUP1 DUP4 GT PUSH2 0x28F JUMPI DUP3 SWAP1 SUB PUSH1 0x1F AND DUP3 ADD SWAP2 JUMPDEST POP POP POP POP POP DUP2 JUMP JUMPDEST PUSH0 PUSH1 0x40 MLOAD DUP1 PUSH1 0x40 ADD PUSH1 0x40 MSTORE DUP1 PUSH1 0x4 DUP2 MSTORE PUSH1 0x20 ADD PUSH32 0x74656D7000000000000000000000000000000000000000000000000000000000 DUP2 MSTORE POP SWAP1 POP DUP2 PUSH1 0x2 SWAP1 DUP2 PUSH2 0x2FC SWAP2 SWAP1 PUSH2 0x8AE JUMP JUMPDEST POP POP POP JUMP JUMPDEST PUSH0 PUSH1 0x20 MSTORE DUP1 PUSH0 MSTORE PUSH1 0x40 PUSH0 KECCAK256 PUSH0 SWAP2 POP SWAP1 POP SLOAD DUP2 JUMP JUMPDEST PUSH1 0x1 PUSH0 SWAP1 SLOAD SWAP1 PUSH2 0x100 EXP SWAP1 DIV PUSH20 0xFFFFFFFFFFFFFFFFFFFFFFFFFFFFFFFFFFFFFFFF AND DUP2 JUMP JUMPDEST PUSH0 DUP2 PUSH20 0xFFFFFFFFFFFFFFFFFFFFFFFFFFFFFFFFFFFFFFFF AND BALANCE SWAP1 POP SWAP2 SWAP1 POP JUMP JUMPDEST PUSH0 PUSH1 0x40 MLOAD SWAP1 POP SWAP1 JUMP JUMPDEST PUSH0 DUP1 REVERT JUMPDEST PUSH0 DUP1 REVERT JUMPDEST PUSH0 PUSH20 0xFFFFFFFFFFFFFFFFFFFFFFFFFFFFFFFFFFFFFFFF DUP3 AND SWAP1 POP SWAP2 SWAP1 POP JUMP JUMPDEST PUSH0 PUSH2 0x394 DUP3 PUSH2 0x36B JUMP JUMPDEST SWAP1 POP SWAP2 SWAP1 POP JUMP JUMPDEST PUSH2 0x3A4 DUP2 PUSH2 0x38A JUMP JUMPDEST DUP2 EQ PUSH2 0x3AE JUMPI PUSH0 DUP1 REVERT JUMPDEST POP JUMP JUMPDEST PUSH0 DUP2 CALLDATALOAD SWAP1 POP PUSH2 0x3BF DUP2 PUSH2 0x39B JUMP JUMPDEST SWAP3 SWAP2 POP POP JUMP JUMPDEST PUSH0 DUP2 SWAP1 POP SWAP2 SWAP1 POP JUMP JUMPDEST PUSH2 0x3D7 DUP2 PUSH2 0x3C5 JUMP JUMPDEST DUP2 EQ PUSH2 0x3E1 JUMPI PUSH0 DUP1 REVERT JUMPDEST POP JUMP JUMPDEST PUSH0 DUP2 CALLDATALOAD SWAP1 POP PUSH2 0x3F2 DUP2 PUSH2 0x3CE JUMP JUMPDEST SWAP3 SWAP2 POP POP JUMP JUMPDEST PUSH0 DUP1 PUSH1 0x40 DUP4 DUP6 SUB SLT ISZERO PUSH2 0x40E JUMPI PUSH2 0x40D PUSH2 0x363 JUMP JUMPDEST JUMPDEST PUSH0 PUSH2 0x41B DUP6 DUP3 DUP7 ADD PUSH2 0x3B1 JUMP JUMPDEST SWAP3 POP POP PUSH1 0x20 PUSH2 0x42C DUP6 DUP3 DUP7 ADD PUSH2 0x3E4 JUMP JUMPDEST SWAP2 POP POP SWAP3 POP SWAP3 SWAP1 POP JUMP JUMPDEST PUSH0 DUP2 MLOAD SWAP1 POP SWAP2 SWAP1 POP JUMP JUMPDEST PUSH0 DUP3 DUP3 MSTORE PUSH1 0x20 DUP3 ADD SWAP1 POP SWAP3 SWAP2 POP POP JUMP JUMPDEST DUP3 DUP2 DUP4 MCOPY PUSH0 DUP4 DUP4 ADD MSTORE POP POP POP JUMP JUMPDEST PUSH0 PUSH1 0x1F NOT PUSH1 0x1F DUP4 ADD AND SWAP1 POP SWAP2 SWAP1 POP JUMP JUMPDEST PUSH0 PUSH2 0x478 DUP3 PUSH2 0x436 JUMP JUMPDEST PUSH2 0x482 DUP2 DUP6 PUSH2 0x440 JUMP JUMPDEST SWAP4 POP PUSH2 0x492 DUP2 DUP6 PUSH1 0x20 DUP7 ADD PUSH2 0x450 JUMP JUMPDEST PUSH2 0x49B DUP2 PUSH2 0x45E JUMP JUMPDEST DUP5 ADD SWAP2 POP POP SWAP3 SWAP2 POP POP JUMP JUMPDEST PUSH0 PUSH1 0x20 DUP3 ADD SWAP1 POP DUP2 DUP2 SUB PUSH0 DUP4 ADD MSTORE PUSH2 0x4BE DUP2 DUP5 PUSH2 0x46E JUMP JUMPDEST SWAP1 POP SWAP3 SWAP2 POP POP JUMP JUMPDEST PUSH0 DUP1 REVERT JUMPDEST PUSH0 DUP1 REVERT JUMPDEST PUSH32 0x4E487B7100000000000000000000000000000000000000000000000000000000 PUSH0 MSTORE PUSH1 0x41 PUSH1 0x4 MSTORE PUSH1 0x24 PUSH0 REVERT JUMPDEST PUSH2 0x504 DUP3 PUSH2 0x45E JUMP JUMPDEST DUP2 ADD DUP2 DUP2 LT PUSH8 0xFFFFFFFFFFFFFFFF DUP3 GT OR ISZERO PUSH2 0x523 JUMPI PUSH2 0x522 PUSH2 0x4CE JUMP JUMPDEST JUMPDEST DUP1 PUSH1 0x40 MSTORE POP POP POP JUMP JUMPDEST PUSH0 PUSH2 0x535 PUSH2 0x35A JUMP JUMPDEST SWAP1 POP PUSH2 0x541 DUP3 DUP3 PUSH2 0x4FB JUMP JUMPDEST SWAP2 SWAP1 POP JUMP JUMPDEST PUSH0 PUSH8 0xFFFFFFFFFFFFFFFF DUP3 GT ISZERO PUSH2 0x560 JUMPI PUSH2 0x55F PUSH2 0x4CE JUMP JUMPDEST JUMPDEST PUSH2 0x569 DUP3 PUSH2 0x45E JUMP JUMPDEST SWAP1 POP PUSH1 0x20 DUP2 ADD SWAP1 POP SWAP2 SWAP1 POP JUMP JUMPDEST DUP3 DUP2 DUP4 CALLDATACOPY PUSH0 DUP4 DUP4 ADD MSTORE POP POP POP JUMP JUMPDEST PUSH0 PUSH2 0x596 PUSH2 0x591 DUP5 PUSH2 0x546 JUMP JUMPDEST PUSH2 0x52C JUMP JUMPDEST SWAP1 POP DUP3 DUP2 MSTORE PUSH1 0x20 DUP2 ADD DUP5 DUP5 DUP5 ADD GT ISZERO PUSH2 0x5B2 JUMPI PUSH2 0x5B1 PUSH2 0x4CA JUMP JUMPDEST JUMPDEST PUSH2 0x5BD DUP5 DUP3 DUP6 PUSH2 0x576 JUMP JUMPDEST POP SWAP4 SWAP3 POP POP POP JUMP JUMPDEST PUSH0 DUP3 PUSH1 0x1F DUP4 ADD SLT PUSH2 0x5D9 JUMPI PUSH2 0x5D8 PUSH2 0x4C6 JUMP JUMPDEST JUMPDEST DUP2 CALLDATALOAD PUSH2 0x5E9 DUP5 DUP3 PUSH1 0x20 DUP7 ADD PUSH2 0x584 JUMP JUMPDEST SWAP2 POP POP SWAP3 SWAP2 POP POP JUMP JUMPDEST PUSH0 PUSH1 0x20 DUP3 DUP5 SUB SLT ISZERO PUSH2 0x607 JUMPI PUSH2 0x606 PUSH2 0x363 JUMP JUMPDEST JUMPDEST PUSH0 DUP3 ADD CALLDATALOAD PUSH8 0xFFFFFFFFFFFFFFFF DUP2 GT ISZERO PUSH2 0x624 JUMPI PUSH2 0x623 PUSH2 0x367 JUMP JUMPDEST JUMPDEST PUSH2 0x630 DUP5 DUP3 DUP6 ADD PUSH2 0x5C5 JUMP JUMPDEST SWAP2 POP POP SWAP3 SWAP2 POP POP JUMP JUMPDEST PUSH0 PUSH1 0x20 DUP3 DUP5 SUB SLT ISZERO PUSH2 0x64E JUMPI PUSH2 0x64D PUSH2 0x363 JUMP JUMPDEST JUMPDEST PUSH0 PUSH2 0x65B DUP5 DUP3 DUP6 ADD PUSH2 0x3B1 JUMP JUMPDEST SWAP2 POP POP SWAP3 SWAP2 POP POP JUMP JUMPDEST PUSH2 0x66D DUP2 PUSH2 0x3C5 JUMP JUMPDEST DUP3 MSTORE POP POP JUMP JUMPDEST PUSH0 PUSH1 0x20 DUP3 ADD SWAP1 POP PUSH2 0x686 PUSH0 DUP4 ADD DUP5 PUSH2 0x664 JUMP JUMPDEST SWAP3 SWAP2 POP POP JUMP JUMPDEST PUSH2 0x695 DUP2 PUSH2 0x38A JUMP JUMPDEST DUP3 MSTORE POP POP JUMP JUMPDEST PUSH0 PUSH1 0x20 DUP3 ADD SWAP1 POP PUSH2 0x6AE PUSH0 DUP4 ADD DUP5 PUSH2 0x68C JUMP JUMPDEST SWAP3 SWAP2 POP POP JUMP JUMPDEST PUSH32 0x4E487B7100000000000000000000000000000000000000000000000000000000 PUSH0 MSTORE PUSH1 0x22 PUSH1 0x4 MSTORE PUSH1 0x24 PUSH0 REVERT JUMPDEST PUSH0 PUSH1 0x2 DUP3 DIV SWAP1 POP PUSH1 0x1 DUP3 AND DUP1 PUSH2 0x6F8 JUMPI PUSH1 0x7F DUP3 AND SWAP2 POP JUMPDEST PUSH1 0x20 DUP3 LT DUP2 SUB PUSH2 0x70B JUMPI PUSH2 0x70A PUSH2 0x6B4 JUMP JUMPDEST JUMPDEST POP SWAP2 SWAP1 POP JUMP JUMPDEST PUSH0 DUP2 SWAP1 POP DUP2 PUSH0 MSTORE PUSH1 0x20 PUSH0 KECCAK256 SWAP1 POP SWAP2 SWAP1 POP JUMP JUMPDEST PUSH0 PUSH1 0x20 PUSH1 0x1F DUP4 ADD DIV SWAP1 POP SWAP2 SWAP1 POP JUMP JUMPDEST PUSH0 DUP3 DUP3 SHL SWAP1 POP SWAP3 SWAP2 POP POP JUMP JUMPDEST PUSH0 PUSH1 0x8 DUP4 MUL PUSH2 0x76D PUSH32 0xFFFFFFFFFFFFFFFFFFFFFFFFFFFFFFFFFFFFFFFFFFFFFFFFFFFFFFFFFFFFFFFF DUP3 PUSH2 0x732 JUMP JUMPDEST PUSH2 0x777 DUP7 DUP4 PUSH2 0x732 JUMP JUMPDEST SWAP6 POP DUP1 NOT DUP5 AND SWAP4 POP DUP1 DUP7 AND DUP5 OR SWAP3 POP POP POP SWAP4 SWAP3 POP POP POP JUMP JUMPDEST PUSH0 DUP2 SWAP1 POP SWAP2 SWAP1 POP JUMP JUMPDEST PUSH0 PUSH2 0x7B2 PUSH2 0x7AD PUSH2 0x7A8 DUP5 PUSH2 0x3C5 JUMP JUMPDEST PUSH2 0x78F JUMP JUMPDEST PUSH2 0x3C5 JUMP JUMPDEST SWAP1 POP SWAP2 SWAP1 POP JUMP JUMPDEST PUSH0 DUP2 SWAP1 POP SWAP2 SWAP1 POP JUMP JUMPDEST PUSH2 0x7CB DUP4 PUSH2 0x798 JUMP JUMPDEST PUSH2 0x7DF PUSH2 0x7D7 DUP3 PUSH2 0x7B9 JUMP JUMPDEST DUP5 DUP5 SLOAD PUSH2 0x73E JUMP JUMPDEST DUP3 SSTORE POP POP POP POP JUMP JUMPDEST PUSH0 SWAP1 JUMP JUMPDEST PUSH2 0x7F3 PUSH2 0x7E7 JUMP JUMPDEST PUSH2 0x7FE DUP2 DUP5 DUP5 PUSH2 0x7C2 JUMP JUMPDEST POP POP POP JUMP JUMPDEST JUMPDEST DUP2 DUP2 LT ISZERO PUSH2 0x821 JUMPI PUSH2 0x816 PUSH0 DUP3 PUSH2 0x7EB JUMP JUMPDEST PUSH1 0x1 DUP2 ADD SWAP1 POP PUSH2 0x804 JUMP JUMPDEST POP POP JUMP JUMPDEST PUSH1 0x1F DUP3 GT ISZERO PUSH2 0x866 JUMPI PUSH2 0x837 DUP2 PUSH2 0x711 JUMP JUMPDEST PUSH2 0x840 DUP5 PUSH2 0x723 JUMP JUMPDEST DUP2 ADD PUSH1 0x20 DUP6 LT ISZERO PUSH2 0x84F JUMPI DUP2 SWAP1 POP JUMPDEST PUSH2 0x863 PUSH2 0x85B DUP6 PUSH2 0x723 JUMP JUMPDEST DUP4 ADD DUP3 PUSH2 0x803 JUMP JUMPDEST POP POP JUMPDEST POP POP POP JUMP JUMPDEST PUSH0 DUP3 DUP3 SHR SWAP1 POP SWAP3 SWAP2 POP POP JUMP JUMPDEST PUSH0 PUSH2 0x886 PUSH0 NOT DUP5 PUSH1 0x8 MUL PUSH2 0x86B JUMP JUMPDEST NOT DUP1 DUP4 AND SWAP2 POP POP SWAP3 SWAP2 POP POP JUMP JUMPDEST PUSH0 PUSH2 0x89E DUP4 DUP4 PUSH2 0x877 JUMP JUMPDEST SWAP2 POP DUP3 PUSH1 0x2 MUL DUP3 OR SWAP1 POP SWAP3 SWAP2 POP POP JUMP JUMPDEST PUSH2 0x8B7 DUP3 PUSH2 0x436 JUMP JUMPDEST PUSH8 0xFFFFFFFFFFFFFFFF DUP2 GT ISZERO PUSH2 0x8D0 JUMPI PUSH2 0x8CF PUSH2 0x4CE JUMP JUMPDEST JUMPDEST PUSH2 0x8DA DUP3 SLOAD PUSH2 0x6E1 JUMP JUMPDEST PUSH2 0x8E5 DUP3 DUP3 DUP6 PUSH2 0x825 JUMP JUMPDEST PUSH0 PUSH1 0x20 SWAP1 POP PUSH1 0x1F DUP4 GT PUSH1 0x1 DUP2 EQ PUSH2 0x916 JUMPI PUSH0 DUP5 ISZERO PUSH2 0x904 JUMPI DUP3 DUP8 ADD MLOAD SWAP1 POP JUMPDEST PUSH2 0x90E DUP6 DUP3 PUSH2 0x893 JUMP JUMPDEST DUP7 SSTORE POP PUSH2 0x975 JUMP JUMPDEST PUSH1 0x1F NOT DUP5 AND PUSH2 0x924 DUP7 PUSH2 0x711 JUMP JUMPDEST PUSH0 JUMPDEST DUP3 DUP2 LT ISZERO PUSH2 0x94B JUMPI DUP5 DUP10 ADD MLOAD DUP3 SSTORE PUSH1 0x1 DUP3 ADD SWAP2 POP PUSH1 0x20 DUP6 ADD SWAP5 POP PUSH1 0x20 DUP2 ADD SWAP1 POP PUSH2 0x926 JUMP JUMPDEST DUP7 DUP4 LT ISZERO PUSH2 0x968 JUMPI DUP5 DUP10 ADD MLOAD PUSH2 0x964 PUSH1 0x1F DUP10 AND DUP3 PUSH2 0x877 JUMP JUMPDEST DUP4 SSTORE POP JUMPDEST PUSH1 0x1 PUSH1 0x2 DUP9 MUL ADD DUP9 SSTORE POP POP POP JUMPDEST POP POP POP POP POP POP JUMP INVALID LOG2 PUSH5 0x6970667358 0x22 SLT KECCAK256 ORIGIN 0xDB 0x21 0xC PUSH21 0xE58820D35D8B542089076663B29438DAA6B8EAA4E4 SLOAD 0x4B MCOPY MSIZE MUL DUP3 PUSH5 0x736F6C6343 STOP ADDMOD NOT STOP CALLER "
		},
		"gasEstimates": {
			"creation": {
				"codeDepositCost": "496600",
				"executionCost": "infinite",
				"totalCost": "infinite"
			},
			"external": {
				"demo(string)": "infinite",
				"getBalance(address)": "3313",
				"myAddr()": "2552",
				"myStr()": "infinite",
				"payments(address)": "2823",
				"receiveFunds()": "22320",
				"transferTo(address,uint256)": "infinite"
			}
		},
		"methodIdentifiers": {
			"demo(string)": "939a79ac",
			"getBalance(address)": "f8b2cb4f",
			"myAddr()": "e665b266",
			"myStr()": "5a455c1c",
			"payments(address)": "e2982c21",
			"receiveFunds()": "005c33e1",
			"transferTo(address,uint256)": "2ccb1b30"
		}
	},
	"abi": [
		{
			"inputs": [
				{
					"internalType": "string",
					"name": "newValueStr",
					"type": "string"
				}
			],
			"name": "demo",
			"outputs": [],
			"stateMutability": "nonpayable",
			"type": "function"
		},
		{
			"inputs": [
				{
					"internalType": "address",
					"name": "targetAddr",
					"type": "address"
				}
			],
			"name": "getBalance",
			"outputs": [
				{
					"internalType": "uint256",
					"name": "",
					"type": "uint256"
				}
			],
			"stateMutability": "view",
			"type": "function"
		},
		{
			"inputs": [],
			"name": "myAddr",
			"outputs": [
				{
					"internalType": "address",
					"name": "",
					"type": "address"
				}
			],
			"stateMutability": "view",
			"type": "function"
		},
		{
			"inputs": [],
			"name": "myStr",
			"outputs": [
				{
					"internalType": "string",
					"name": "",
					"type": "string"
				}
			],
			"stateMutability": "view",
			"type": "function"
		},
		{
			"inputs": [
				{
					"internalType": "address",
					"name": "",
					"type": "address"
				}
			],
			"name": "payments",
			"outputs": [
				{
					"internalType": "uint256",
					"name": "",
					"type": "uint256"
				}
			],
			"stateMutability": "view",
			"type": "function"
		},
		{
			"inputs": [],
			"name": "receiveFunds",
			"outputs": [],
			"stateMutability": "payable",
			"type": "function"
		},
		{
			"inputs": [
				{
					"internalType": "address",
					"name": "targetAddr",
					"type": "address"
				},
				{
					"internalType": "uint256",
					"name": "amount",
					"type": "uint256"
				}
			],
			"name": "transferTo",
			"outputs": [],
			"stateMutability": "nonpayable",
			"type": "function"
		}
	]
}